:020000042000DA
:10040000A81F0020B504002000F002F800F03EF81C
:100410000CA030C8083824182D18A246671EAB4619
:1004200054465D46AC4201D100F030F87E460F3EA6
:100430000FCCB6460126334200D0FB1AA246AB468B
:10044000334318477013000090130000103A02D392
:1004500078C878C1FAD8520701D330C830C101D565
:1004600004680C607047000000230024002500266B
:10047000103A01D378C1FBD8520700D330C100D560
:100480000B6070471FB51FBD10B510BD01F050F9CE
:100490001146FFF7F7FF00F0C1F901F068F903B466
:1004A000FFF7F2FF03BC01F06FF9000080F308884A
:1004B000704700000B4880F308880B480168090E5C
:1004C0000A4A914205D10A480A4901600A480B4983
:1004D00001600B48004700000A480B49094A0B4BD2
:1004E00070470000A81F0020040000001F0000004B
:1004F0001810024001000000000001400000000050
:1005000009040020A81E0020A81F0020A81E00200B
:100510007D20C00000BF0146401E0029FBD170476E
:100520000CB5024600200190009006E01378521CA2
:10053000009818180090481E81B20029F6DC009837
:10054000C0B200900098C3B20193684600790CBD18
:1005500010B50446FD49206808400121490788423A
:1005600008D16068FA4908602068FFF79FFFF848E3
:100570000068804710BD0021F64A116026E0F64A67
:10058000F64909680F31515C0A06F34BF3490968D3
:100590000E31595C09045218F04909680D31595C53
:1005A00009025218ED4909680C31595C5118E94AA1
:1005B00012689200EA4B9950E8490968091DE74A18
:1005C0001160E4490968491CE24A1160E14909687F
:1005D0008142D4D30021E14A1160DE4A11607047A4
:1005E00030B5DD4B9B78DC4C6478240223431A46FB
:1005F000DC4B1B7857246343DB4C24781B19D9B29E
:1006000000200DE003460C33D34CE35C4B40044622
:100610000C34D14D2B550B465733D9B2431C98B2ED
:1006200013460D3B8342EDDC30BD0021C94A116009
:100630001AE0C94AC94909680D31515C0A02C64B22
:10064000C64909680C31595C5118C24A12685200F7
:10065000C64B9952C1490968891CC04A1160BD49FD
:100660000968491CBB4A1160BA4909688142E0D354
:100670000021BA4A1160B74A11607047F8B50546C3
:100680000E461746002407E06000315A284600F065
:1006900035FFAD1C601C84B2BC42F5DBF8BD70B503
:1006A00005460E46002407E0A200AD4B9958A20073
:1006B000501900F0F1FE641CB442F5D3012070BD66
:1006C00000BFAB49097AC907C90F0029F9D0A84969
:1006D0000860704710B50024A64A12685202520FF3
:1006E000511CA44A1268920E501C00F071FFA249DE
:1006F0000870A0480068012108439E49086000BFB7
:100700009C480068022108400028F9D04802994915
:1007100048600846406801210904884395494860BB
:100720000846006801210906884392490860084686
:1007300000681F21890688438E49086008460068C2
:100740000721890608438B4908608C48006803210B
:1007500008438A4908608748006801210906084360
:100760008449086000BF83480068012149060840A9
:100770000028F8D07F484068800880007D494860A4
:1007800008464068022108437A49486005E07948F4
:1007900040688005040EA407A40F022CF7D110BDF9
:1007A00010B504460920C0064068FF2109018843AE
:1007B0001121C90140180921C90648600846C068CE
:1007C0000321490208430921C906C86068488069B5
:1007D00040084000664988612146694800F0F8FEFB
:1007E0000009634908622146654800F0F1FE0007F0
:1007F000000F5F49486208468069012108435C494F
:1008000088610920C0064068FF21090188438B21C7
:10081000090140180921C906486010BD8AB00024AA
:100820000020099006900027059004900026039070
:10083000002502900090FFF74DFF4E48806901218E
:10084000890308434B498861182049498861302051
:10085000C86149480078012810D10A46126A12017D
:100860000B469B8C1B071B0FD118434A1278454B34
:100870005A43104600F0ACFE01900EE03C4A126A6A
:1008800013013B4A526A0F3299183B4A12783E4B89
:100890005A43104600F09CFE01903948019900F03F
:1008A00097FE0009324908623548019900F090FE30
:1008B0000007000F2E4948620846006902210843DC
:1008C0002B4908610846806901210843284988614D
:1008D00028484069012149040843264948612B48BA
:1008E000006A2B490843294908620920C006406A6A
:1008F000FF21090188430921C90648620846406A68
:10090000FF21113108430921C906486208464068A1
:10091000000B00034860084640681E49084309214F
:10092000C906486000F016FD53201B490870F0E32B
:100930001A480078012840D1002019490860194957
:10094000086016490870012433E000000000FE2F03
:10095000001B0020241B0020281B0020201B00203F
:10096000481C0020041B00201C1B0020481D0020E8
:1009700000380140001002401D1B002000200240F2
:1009800000D8B80500127A00001BB7000004004828
:1009900077777777BB080000351C0020101B0020FC
:1009A0000C1B0020081B00200020F9490855601C82
:1009B00084B2FF200E308442F6DBF648C068022184
:1009C0000840002820D00220F249486102980028FF
:1009D0001FD108460179EE48EF4A12688154EE486B
:1009E0000068401CEC4908600020EC490860E848B9
:1009F00040780002E64989780843E7490968884257
:100A000007D10120029004E0E4480068401CE3495B
:100A10000860E2480068E249884215D9DE4800686B
:100A2000002811D0DC480088401E81B2D848FFF76A
:100A300077FDD9490968491ED54A515C884203D0DF
:100A40000120D849087074E3029801287ED1D0486B
:100A5000C07807287BD007DC030000F09CFE071459
:100A600024C2DF7CF8F77C00202871D006DC09283E
:100A70006FD00A286ED00F286DD16AE221286BD082
:100A80005A28F9D127E35320FFF71AFE0020FFF779
:100A900017FE0520FFF714FE0020FFF711FE582077
:100AA000FFF70EFE37E3BA4800790006B8494979E6
:100AB00009040843B649897909020843B449C97948
:100AC000084309900998002822D0B148007A00060E
:100AD000AF49497A09044018AD49897A090240189A
:100AE000AB49C97A4018B04908600098012801D183
:100AF000FFF776FD4020FFF73EFDAB490968491E30
:100B00000902AA4A126888184021FFF7C8FD46E08A
:100B1000FF20A749C86000F01DFC00F04DFC9C4878
:100B2000007A00069A49497A090408439849897A63
:100B3000090208439649C97A08439C4908609448C9
:100B4000007B00069249497B090406E0F0E239E1A6
:100B500048E28CE1C2E1DDE295E208438C49897B01
:100B6000090208438A49C97B0843924908608848BA
:100B7000C07C012811D1009085488078844949784B
:100B80000902084307908248C17B0798401E804AAB
:100B9000105C41408848017001E000200090002076
:100BA00086494870112088700120C870042405E02F
:100BB0007748005D81490855601C84B2102CF7DB32
:100BC00010217E48FFF7ACFC7C490874002405E046
:100BD0007A49085DFFF774FD601C84B2112CF7DBC5
:100BE00099E25320FFF76CFD0020FFF769FD062016
:100BF000FFF766FD0220FFF763FD6548C079022814
:100C000005D1FFF75DFD5D20FFF75AFD05E00120EE
:100C1000FFF756FD5C20FFF753FD7CE25C4800794E
:100C200000065B4949790904084359498979090251
:100C300008435749C9790843089000205F49487024
:100C4000092088700320C870042407E05DE024E0D8
:100C50004F48005D59490855601C84B2082CF7DBE9
:100C600008215648FFF75CFC54490872002405E04F
:100C70005249085DFFF724FD601C84B2092CF7DBA4
:100C800000BF4448007AC007C00F0028F9D0FFF722
:100C90003FFC0898FFF784FD3DE23D48007A3C495F
:100CA000497A090208433A49897A090408433849CC
:100CB000C97A0906084307463548007B3449497B11
:100CC000090208433249897B090408433049C97B3A
:100CD0000906084305900598386000203749487098
:100CE000092088700520C87008213448FFF718FCD7
:100CF00032490872002405E03049085DFFF7E0FC46
:100D0000601C84B2092CF7DB05E22148007A2049F7
:100D1000497A090208431E49897A090408431C4993
:100D2000C97A0906084307462548384024498842BD
:100D300006D1F807C00F002804D13888049001E0DC
:100D40003868049000201D494870092088700620EA
:100D5000C8700498087104980004000E4871049843
:100D60000002000E88710498000EC8710821134813
:100D7000FFF7D6FB11490872002405E00F49085D12
:100D8000FFF79EFC601C84B2092CF7DBC3E1000076
:100D9000281B002000380140081B00200C1B0020ED
:100DA00088130000101B0020041B0020141B0020CF
:100DB00000200240181B00201C1B0020351C0020B6
:100DC00000F8FF1FDC488079DB49C9790902084334
:100DD0000546D948007AD849497A09020843D649D4
:100DE000897A09040843D449C97A0906084303905B
:100DF000D1480079D04949790843012802D10398A4
:100E000000F0B5FA6808FFF710FCE803020CCB49C4
:100E10000398FFF733FC28460D300004000EC84944
:100E2000487028460D3088700720C870082405E0F7
:100E3000C148005DC2490855601C84B228460C3088
:100E40008442F5D381B2BE48FFF76AFB29460C31D4
:100E5000BB4A5054002405E0B949085DFFF730FC57
:100E6000601C84B228460D30A042F5D853E1002022
:100E7000B349487009208870C8700821B048FFF74E
:100E80004FFBAF490872002405E0AD49085DFFF74C
:100E900017FC601C84B2092CF7DB00BFA948007A5C
:100EA000C007C00F0028F9D0002403E0FFF730FB93
:100EB000601C84B20A2CF9DB9F49097909069E4A15
:100EC0005279120411439C4A9279120211439A4AB0
:100ED000D27911430846FFF73BFB1CE100F0B6F95D
:100EE00001200690002413E0934A231DD15C964A0A
:100EF000A01800F031FB9049201D085C9249611850
:100F00000978884202D00220069003E0A01C84B237
:100F1000102CE9DB00BF0020894948700920887047
:100F20000A20C87000200871487188710698C8713D
:100F300008218348FFF7F4FA81490872002405E08C
:100F40007F49085DFFF7BCFB601C84B2092CF7DB0E
:100F5000E1E00026002406E0A0007C49096808586A
:100F60008619601C84B27A4800688008A042F3D8D1
:100F7000774800688007800F002812D000240AE01C
:100F80007348006880088000704909684018005D57
:100F90008619601C84B26E4800688007800FA042EA
:100FA000EED80020664948700D2088700F20C87068
:100FB0000E723004000E48723002000E8872300E3D
:100FC000C8720C215E48FFF7ABFA5D490873002434
:100FD00005E05B49085DFFF773FB601C84B20D2CD4
:100FE000F7DB98E0002056494870092088702020DF
:100FF000C870562008713020487132208871312025
:10100000C8714D48807806280BDD4B4800790328CD
:1010100007D10B208870484800790872464840790B
:10102000487247488078401E81B24548FFF778FAF9
:1010300043498978491E424A5054002405E04049FA
:10104000085DFFF73DFB601C84B23D488078A042FC
:10105000F5DC00BF3B48007AC007C00F0028F9D07C
:101060003548807806280DDD33480079032809D1FA
:10107000FFF74EFA3249497A4B2252015143084652
:10108000FFF78EFB47E000202D4948700D20887047
:101090002120C8704C200871302048713720887199
:1010A0005820C8714320087230204872312088725D
:1010B0003020C8720C212248FFF732FA2049087309
:1010C000002405E01E49085DFFF7FAFA601C84B2AF
:1010D0000D2CF7DB1FE000F0F3F800F06DF900F0E5
:1010E0007BF8002016494870092088705A20C87083
:1010F00008211348FFF714FA11490872002405E08B
:101100000F49085DFFF7DCFA601C84B2092CF7DB9D
:1011100001E00EE000BF00BF00BF0A48007AC00730
:10112000C00F0028F9D001200A4908700020029061
:1011300000BFFFF7FDFB0000281B0020481D00201A
:10114000351C00200038014000F8FF1F141B002050
:10115000181B0020101B0020704770470420F7491F
:10116000C968C907C90F002901D0012010E0F3495F
:10117000C96804221140002901D0022008E0EF498B
:10118000C96810221140002901D0032000E004208A
:10119000704708B500200090FF20009002E0009802
:1011A000401E009000980028F9D108BD70B5044693
:1011B0000425FFF7D3FF054605E0FFF7EAFFFFF739
:1011C000CDFF0546641E012D01D1002CF5D1002C68
:1011D00000D10525284670BD10B50424D848D7494C
:1011E0004861D848FFF7E2FF0446042C2CD1D648CA
:1011F000D2498860D54888600846006920210843A4
:10120000CE4908610846006940210843CB4908617E
:10121000CC48FFF7CBFF0446042C0CD1C74800692B
:10122000CB490840C54908610846006910210843B8
:10123000C249086108E0012C06D0C0480069C449D1
:1012400010310840BD490861204610BD10B5042486
:10125000C048BA494861C013FFF7A8FF0446042CF0
:101260002CD1B948B5498860B848886008460069FB
:1012700020210843B149086108460069402108431C
:10128000AE490861AF48FFF791FF0446042C0CD12A
:10129000AA480069AE490840A849086108460069A3
:1012A00010210843A549086108E0012C06D0A34895
:1012B0000069A74910310840A0490861204610BDC7
:1012C00010B50424A3489D494861C013FFF76EFF81
:1012D0000446042C3CD19C48984988609B4888600F
:1012E00008460069202108439449086108460069BE
:1012F00040210843914908619248FFF757FF04468F
:10130000042C1CD18D480069914908408B49086123
:10131000084600691021084388490861A5208D49C5
:101320000880C813FFF742FF0446012C10D0834801
:1013300000698749103108408049086108E0012CA4
:1013400006D07E4800698249103108407B49086117
:10135000204610BD7C48794948607C484860704709
:10136000764800698021084374490861704770B568
:10137000054604247348FFF719FF0446042C19D1CD
:101380006E480069022108436C49086108464561BE
:10139000006940210843694908616A48FFF706FF70
:1013A0000446012C06D06548006969491E31084091
:1013B00062490861204670BD10B504246148FFF7FA
:1013C000F5FE0446042C18D15C480069042108434A
:1013D0005A49086108460069402108435749086195
:1013E0005848FFF7E3FE0446012C06D05348006935
:1013F00057491C31084051490861204610BD70B55D
:10140000054604244F48FFF7D1FE0446042C41D181
:101410004D484A4988604D48886008460069202147
:10142000084346490861084600694021084343498A
:1014300008614448FFF7BAFE0446042C22D13F4815
:101440000069434908403D49086108460069102188
:1014500008433A490861002D03D000203D49088027
:1014600002E0A5203B4908803648FFF79FFE04466E
:10147000012C0FD0314800693549103108402F49FF
:10148000086107E0012C05D02C480069304908406C
:101490002A490861204670BD70B505460E460424F1
:1014A0002848FFF783FE0446042C25D12348006911
:1014B00001210843214908612E802248FFF776FE6A
:1014C0000446042C0FD1300C68801E48FFF76EFED6
:1014D0000446012C10D0194800691D491F310840ED
:1014E0001649086108E0012C06D014480069184923
:1014F0001F31084011490861204670BD70B505468E
:101500000E4604240F48FFF751FE0446042C13D165
:101510000A48006901210843084908612E800948EA
:10152000FFF744FE0446012C06D004480069084930
:101530001F31084001490861204670BD002002406B
:101540000000FE1FFF3F000023016745AB89EFCD80
:10155000DF1F000000F8FF1F70B505460E4604248B
:101560001648FFF723FE0446042C17D114481549EA
:1015700088601548886008460069102108431149B1
:1015800008612E800D48FFF711FE0446012C05D09E
:101590000C4800690D4908400A490861204670BDA1
:1015A00000200849C96902221140002901D0012008
:1015B00000E0002070470349C8607047FF3F00000B
:1015C0002301674500200240AB89EFCDEF1F0000EB
:1015D000002203098B422CD3030A8B4211D3002330
:1015E0009C464EE003460B433CD4002243088B420A
:1015F00031D303098B421CD3030A8B4201D3944697
:101600003FE0C3098B4201D3CB01C01A5241830989
:101610008B4201D38B01C01A524143098B4201D343
:101620004B01C01A524103098B4201D30B01C01A6E
:101630005241C3088B4201D3CB00C01A52418308E8
:101640008B4201D38B00C01A524143088B4201D315
:101650004B00C01A5241411A00D201465241104675
:1016600070475DE0CA0F00D04942031000D34042EA
:10167000534000229C4603098B422DD3030A8B4220
:1016800012D3FC22890112BA030A8B420CD38901BE
:1016900092118B4208D3890192118B4204D38901A4
:1016A0003AD0921100E08909C3098B4201D3CB01E2
:1016B000C01A524183098B4201D38B01C01A524197
:1016C00043098B4201D34B01C01A524103098B429B
:1016D00001D30B01C01A5241C3088B4201D3CB0086
:1016E000C01A524183088B4201D38B00C01A524169
:1016F000D9D243088B4201D34B00C01A5241411A40
:1017000000D20146634652415B10104601D340426D
:10171000002B00D54942704763465B1000D340421E
:1017200001B50020C046C04602BD704770477047F3
:10173000754600F025F8AE46050069465346C008D8
:10174000C000854618B020B5FEF7C6FE60BC002775
:101750004908B6460026C0C5C0C5C0C5C0C5C0C57D
:10176000C0C5C0C5C0C5403D49008D46704710B5D5
:101770000446C046C0462046FEF791FE10BD00005C
:1017800000487047481E002001491820ABBEFEE704
:1017900026000200704730B47446641E2578641C2D
:1017A000AB4204D3635D5B00E31830BC18471D46B1
:1017B000F8E70000D4170020001B002028000000DC
:1017C0004C040020FC170020281B0020800400008F
:1017D000680400200000000000000000000000007D
:1017E00000000000000000000000000000000000F9
:0C17F000000000000000000000000000ED
:0400000520000409CA
:00000001FF
