:020000042000DA
:1004000000500020B510002000F002F800F03AF88B
:100410000AA090E8000C82448344AAF10107DA455F
:1004200001D100F02FF8AFF2090EBAE80F0013F077
:10043000010F18BFFB1A43F001031847BC1000005E
:10044000EC100000103A24BF78C878C1FAD85207DF
:1004500024BF30C830C144BF04680C60704700003E
:100460000023002400250026103A28BF78C1FBD8BD
:10047000520728BF30C148BF0B6070471FB51FBD72
:1004800010B510BD00F0FDFF1146FFF7F7FF00F0BB
:1004900089F901F01BF803B4FFF7F2FF03BC01F088
:1004A00023F8000080F30888704700004FF47A704A
:1004B00000BF011EA0F10100FBD170470CB5024640
:1004C00000200190009006E012F8013B00981844CB
:1004D0000090481E81B20029F6DC0098C0B200905E
:1004E0000098C0B201909DF804000CBD10B5044600
:1004F000FD4920680840B0F1005F08D16068FB4901
:1005000008602068FFF7CEFFF8480068804710BDFC
:100510000021F74A116026E0F64AF74909680F31D1
:10052000515C0A06F34BF44909680E31595C02EB41
:100530000142F14909680D31595C02EB0122EE4993
:1005400009680C31595C1144EC4AE94B1B6842F8CC
:100550002310E9490968091DE74A1160E44909685F
:10056000491CE34A1160E24909688142D4D3002161
:10057000E14A1160DE4A1160704730B5DD4B9B786F
:10058000DC4C647843EA0422DD4B1B78DD4C2468A4
:10059000572505FB0433D9B200200DE000F10C0310
:1005A000D44CE35C4B4000F10C04D24D2B5501F1CF
:1005B0005703D9B2431C98B2A2F10D038342EDDC7C
:1005C00030BD0021CA4A11601BE0CA4ACA49096805
:1005D0000C31525CC74BC84909680D31595C02EBBC
:1005E00001218AB2C849C24B1B6821F81320C249B5
:1005F0000968891CC04A1160BD490968491CBC4A88
:100600001160BB4909688142DFD30021BA4A1160F9
:10061000B74A116070472DE9F04105460E4617466E
:10062000002407E036F81410284600F0D6FEAD1C72
:10063000601C84B2BC42F5DBBDE8F08170B50546B4
:100640000E46002407E0AD4A52F8241005EB840062
:1006500000F091FE641CB442F5D3012070BD00BFD0
:10066000AA49097801F001010029F9D0A749083900
:10067000086070470020A6490968012202EB9162D8
:10068000A3490968C1F30251491CB2FBF1F1A14A27
:1006900011709F49096841F001019D4A116000BF36
:1006A0009B49096801F002010029F9D04FF48061EB
:1006B000974A51601146496821F4803151601146D2
:1006C000096821F0807111601146096821F0F84134
:1006D00011601146096841F0E05111608E490968C6
:1006E00001F0F8018C4A11601146096841F00301DC
:1006F00011608749096841F08071854A116000BF27
:100700008349096801F000710029F9D080494968DE
:1007100021F003017E4A51601146496841F002010F
:10072000516005E07A494968C1F3870000F0030091
:100730000228F7D170477949096821F47F6141F4B3
:100740000861764A116075490831096841F4C06151
:10075000724A083211606D491031096821F00101B7
:100760006A4A103211606E49B1FBF0F10909674A1B
:10077000183211606A49B1FBF0F101F00F01121D4E
:10078000116062491031096841F001015F4A10327D
:1007900011606249096821F47F6141F40B615F4A8D
:1007A0001160704786B00024002005900490002757
:1007B0000390804600260290002501900090FFF7EC
:1007C00059FF5348806944F2140108435049886135
:1007D00018204E49103108603020091D08604D482E
:1007E000007801280DD149481C300168001F0068BD
:1007F00001EB0011474800784A4A5043B0FBF1F939
:100800000CE042481C300168001F006801EB001139
:1008100040480078444A5043B0FBF1F94048B0FBEF
:10082000F9F000093949183108603D48B0FBF9F08A
:1008300000F00F00091D086034480830006840F0DF
:10084000020032490831086030481030006840F03A
:1008500001002E4910310860304800686FF30B002A
:100860002E4908600846006840F6BB0108432B4942
:10087000086000F0E5FC53202C490870EFE32C4899
:100880000078012806D100202A4908602A4908601A
:10089000274908701D48001D007800F0020008B3C9
:1008A00002201A490C3108600198E0B91748001F6E
:1008B00001781048204A126881541F480068401C83
:1008C0001D49086000201B4908600A4880780949D2
:1008D000497840EA012018490968884233D101204B
:1008E000019030E02AE02EE00000FE2F0000002002
:1008F00024000020280000202000002048010020C3
:100900001C0000200400002048020020083801409C
:10091000001002401D000020002002400408014099
:1009200000D8B80500127A00001BB700350100207E
:10093000100000200C00002008000020FE48006885
:10094000401CFD490860FC48006842F2283188429A
:1009500014D9FA48006888B1F8480088401E81B26E
:10096000F748FFF7ABFDF5490968491EF44A515CA9
:10097000884203D00120F349087089E301980128D7
:100980007ED1002401E0601C84B2B4F57A7FFADBEA
:10099000EB48C078072874D006DC73D2DFE800F09B
:1009A0001323C0DD72F6F50020286CD006DC092880
:1009B0006AD00A2869D00F2864D172E221287DD03C
:1009C0005A28F9D131E35320FFF749FE0020FFF701
:1009D00046FE0520FFF743FE0020FFF740FE5820AB
:1009E000FFF73DFE46E3D64800790006D449497931
:1009F00040EA0140D249897940EA0120D049C979C9
:100A000008430590059810B3CD48007A0106CC48FC
:100A1000407A01EB0041CA48807A01EB0020C849C6
:100A2000C97A0844C84908600098012801D1FFF735
:100A3000A4FD4020FFF76CFDC3490968491EC34A65
:100A4000126802EB01204021FFF7F8FD46E0FF208D
:100A5000BF49C86000F0F4FB00F01EFCB848007A03
:100A60000006B749497A40EA0140B549897A40EA27
:100A70000120B349C97A0843B4490860B04805E089
:100A800005E323E1F5E257E293E1CEE1007B0006C6
:100A9000AB49497B40EA0140A949897B40EA0120F2
:100AA000A749C97B0843AB490860A548C07C012819
:100AB00012D10090A2488078A14900E08DE24978E7
:100AC00040EA012B9E48C07BABF101019C4A515C7E
:100AD0004840A149087001E00020009000209F4993
:100AE0004870112088700120C870042405E09448E3
:100AF000005D9A490855601C84B2102CF7DB102168
:100B00009648FFF7DBFC95490874002405E09349FB
:100B1000085DFFF7A4FD601C84B2112CF7DBA9E28D
:100B20005320FFF79CFD0020FFF799FD0620FFF7FB
:100B300096FD0220FFF793FD8148C079022805D178
:100B4000FFF78DFD5D20FFF78AFD05E00120FFF72F
:100B500086FD5C20FFF783FD8CE279480079000672
:100B60007749497940EA01407549897940EA01208D
:100B70007349C97940EA010A002078494870092080
:100B800088700320C870042407E061E024E06C480A
:100B9000005D72490855601C84B2082CF7DB0821FF
:100BA0006E48FFF78BFC6D490872002405E06B4925
:100BB000085DFFF754FD601C84B2092CF7DB00BF11
:100BC0006748007800F001000028F9D0FFF76EFCBC
:100BD0005046FFF7B0FD4DE25948007A5849497A2E
:100BE00040EA01205649897A40EA01405449C97ACD
:100BF00040EA01675248007B5149497B40EA0120A5
:100C00004F49897B40EA01404D49C97B40EA016078
:100C1000039003983860002050494870092088707C
:100C20000520C8700020087148718871C8710821BA
:100C30004A48FFF743FC49490872002405E0474948
:100C4000085DFFF70CFD601C84B2092CF7DB11E294
:100C50003B48007A3A49497A40EA01203849897A82
:100C600040EA01403649C97A40EA01673D483840C8
:100C70003C49884205D107F0010020B9B7F800804F
:100C800001E0D7F8008000203449487009208870BE
:100C90000620C87081F804804FEA182048714FEA96
:100CA000184088714FEA1860C87108212B48FFF777
:100CB00005FC2A490872002405E02849085DFFF771
:100CC000CEFC601C84B2092CF7DBD3E11C48807990
:100CD0001B49C97940EA01251948007A1849497A1F
:100CE00040EA01201649897A40EA01401449C97A4C
:100CF00040EA01600290124800791149497908439D
:100D0000012802D1029800F0A1FA6808FFF759FC07
:100D1000C5F34F0214490298FFF77DFC05F10D0061
:100D2000000A0E49487005F10D0088700720C87050
:100D300000200871487119E00C0000200800002014
:100D400028000020100000200400002014000020D3
:100D500000200240180000201C0000203501002067
:100D60000838014000F8FF1F480200208871C87150
:100D7000082405E0C748005DC7490855601C84B2D7
:100D800005F10C008442F5D381B2C348FFF796FB0E
:100D900005F10C01C04A5054002405E0BE49085D2D
:100DA000FFF75DFC601C84B205F10D00A042F5D890
:100DB00060E10020B849487009208870C8700020A0
:100DC000087148718871C8710821B348FFF776FB34
:100DD000B1490872002405E0AF49085DFFF73FFC08
:100DE000601C84B2092CF7DB00BFAC48007800F02F
:100DF00001000028F9D0002403E0FFF757FB601C36
:100E000084B20A2CF9DBA34909790906A14A52796F
:100E100041EA02419F4A927941EA02219D4AD279F0
:100E200041EA0200FFF762FB24E100F0D0F9012063
:100E30000490002414E0974B221D995C984AA01856
:100E400000F0EBFA9349201D085C9649214491F883
:100E50000018884202D00220049003E0A01C84B253
:100E6000102CE8DB00BF00208B49487009208870F7
:100E70000A20C87000200871487188710498C871F0
:100E800008218548FFF71AFB83490872002405E012
:100E90008149085DFFF7E3FB601C84B2092CF7DB96
:100EA000E8E00026002406E07F48006850F82400AF
:100EB0000644601C84B27D480068B4EB900FF3D305
:100EC0007A48007800F0030090B100240AE07748E7
:100ED000006880087449096801EB8000005D0644E1
:100EE000601C84B27148007800F00300A042EED884
:100EF0000020694948700D2088700F20C8700020BC
:100F0000087148718871C8710E72300A4872300CCD
:100F10008872300EC8720C215F48FFF7CFFA5E4925
:100F20000873002405E05C49085DFFF798FB601C2E
:100F300084B20D2CF7DB9DE0002057494870092052
:100F400088702020C87056200871332048713220E4
:100F500088713120C8714F48807806280BDD4D48D4
:100F60000079032807D10B2088704A48007908725D
:100F700048484079487248488078401E81B24648C7
:100F8000FFF79CFA44498978491E434A505400248B
:100F900005E04149085DFFF762FB601C84B23E48F2
:100FA0008078A042F5DC00BF3C48007800F00100EA
:100FB0000028F9D03748807806280DDD35480079BB
:100FC000032809D1FFF772FA3349497A4FF41662C0
:100FD00001FB02F0FFF7AFFB4CE000202E49487008
:100FE0000D2088702120C8704C2008713320487172
:100FF000372088715820C871432008723320487206
:10100000312088723020C8720C212348FFF756FA2D
:1010100021490873002405E01F49085DFFF71FFB05
:10102000601C84B20D2CF7DB24E000F05BF900F0CB
:1010300033F900F093F800201749487009208870B0
:101040005A20C8700020087148718871C871082141
:101050001148FFF733FA10490872002406E017E040
:101060000D49085DFFF7FBFA601C84B2092CF7DB21
:1010700000E000BF00BF00BF0848007800F001009A
:101080000028F9D001200A4908700020019000BF13
:10109000FFF7F5BB2800002035010020083801408B
:1010A00000F8FF1F00F0FF1F1400002018000020B0
:1010B0001000002008480047FEE7FEE7FEE7FEE7D5
:1010C000FEE7FEE7FEE7FEE7FEE7FEE7034804492A
:1010D000024A044B7047000009040020A8030020C6
:1010E00000500020004F00200420DF49C96801F0B3
:1010F000010109B101200EE0DB49C96801F00401DA
:1011000009B1022007E0D849C96801F0100109B10E
:10111000032000E00420704708B500200090FF2065
:10112000009002E00098401E009000980028F9D13D
:1011300008BD70B504460425FFF7D6FF054605E057
:10114000FFF7EAFFFFF7D0FF0546641E012D01D12E
:10115000002CF5D104B90525284670BD10B504242E
:10116000C248C14948614014FFF7E3FF0446042C1C
:101170002BD1BF48BC498860BE48886008460069DA
:1011800040F0200008610846006940F04000086116
:1011900040F6FF70FFF7CDFF0446042C0CD1B24897
:1011A000006941F6DF710840AF49086108460069EF
:1011B00040F01000086108E0012C06D0AA48006940
:1011C00041F6EF710840A8490861204610BD10B5EE
:1011D0000424A948A44948614014FFF7AAFF044623
:1011E000042C2BD1A248A0498860A24888600846F8
:1011F000006940F0200008610846006940F04000A6
:10120000086140F6FF70FFF794FF0446042C0CD1F0
:101210009548006941F6DF71084093490861084626
:10122000006940F01000086108E0012C06D08E48EB
:10123000006941F6EF7108408B490861204610BDF6
:101240008B48894948608B484860704770B50546AF
:10125000042440F6FF70FFF76CFF0446042C19D1FC
:101260008148006940F002007F49086108464561F5
:10127000006940F04000086140F6FF70FFF759FF39
:101280000446012C06D07848006941F6FD710840FB
:1012900075490861204670BD10B5042440F6FF7002
:1012A000FFF747FF0446042C1AD140066E494861F7
:1012B0000846006940F0040008610846006940F0F3
:1012C0004000086140F6FF70FFF733FF0446012C31
:1012D00006D06548006941F6FB7108406249086123
:1012E000204610BD10B5042440F6FF70FFF721FF23
:1012F0000446042C3DD15E485B4988605D488860A7
:101300000846006940F0200008615B4848610846D3
:10131000006940F04000086140F6FF70FFF709FFE8
:101320000446042C1CD15048006941F6DF71084086
:101330004D4908610846006940F010000861A52089
:101340004D4908800F20FFF7F4FE0446012C10D011
:101350004548006941F6EF7108404349086108E0DB
:10136000012C06D04048006941F6EF7108403E4923
:101370000861204610BD70B505460E4604240F20B6
:10138000FFF7D7FE0446042C25D13748006940F00A
:101390000100354908612E800F20FFF7CAFE044680
:1013A000042C0FD1300C68800F20FFF7C2FE0446DA
:1013B000012C10D02C48006941F6FE7108402A49E2
:1013C000086108E0012C06D02748006941F6FE714B
:1013D000084025490861204670BD70B505460E4697
:1013E00004240F20FFF7A5FE0446042C13D11E4849
:1013F000006940F001001C4908612E800F20FFF7B2
:1014000098FE0446012C06D01748006941F6FE718B
:10141000084015490861204670BD70B505460E4666
:1014200004240F20FFF785FE0446042C17D1104832
:101430000D4988600F4888600846006940F0100038
:1014400008612E800F20FFF774FE0446012C06D0A1
:101450000548006941F6EF710840034908612046DC
:1014600070BD0149C8607047002002400000FE1FA7
:1014700023016745AB89EFCD00F8FF1F7047704728
:101480007047754600F02CF8AE4605006946534695
:1014900020F00700854618B020B5FFF717FEBDE81D
:1014A00020404FF000064FF000074FF000084FF0CB
:1014B000000B21F00701AC46ACE8C009ACE8C0095C
:1014C000ACE8C009ACE8C0098D46704710B50446C9
:1014D000AFF300802046BDE81040FEF7DCBF0000FF
:1014E000004870474803002001491820ABBEFEE7C2
:1014F0002600020070470000281500200000002090
:10150000280000004404002050150020280000207E
:10151000800300006004002050150020004F0020D0
:101520000001000060040020000000000000000036
:1015300000000000000000000000000000000000AB
:10154000000000000000000000000000000000009B
:0400000520000409CA
:00000001FF
