:020000042000DA
:10040000E8030020B504002000F002F800F03EF8F8
:100410000CA030C8083824182D18A246671EAB4619
:1004200054465D46AC4201D100F030F87E460F3EA6
:100430000FCCB6460126334200D0FB1AA246AB468B
:1004400033431847D00A0000F00A0000103A02D3E4
:1004500078C878C1FAD8520701D330C830C101D565
:1004600004680C607047000000230024002500266B
:10047000103A01D378C1FBD8520700D330C100D560
:100480000B6070471FB51FBD10B510BD00F0F9F827
:100490001146FFF7F7FF00F097FA00F011F903B4E7
:1004A000FFF7F2FF03BC00F017F9000080F30888A3
:1004B00070470000094880F3088809480168090E60
:1004C000084A914202D1084808490160084800479B
:1004D00008480949074A094B70470000E803002013
:1004E000040000001F0000000000014000000000A8
:1004F00009040020A8030020E8030020A80300202E
:100500000378C2781946437812061B021943837890
:10051000C0781B04194311430902090A0006084365
:100520007047002203098B422CD3030A8B4211D35C
:1005300000239C464EE003460B433CD40022430874
:100540008B4231D303098B421CD3030A8B4201D364
:1005500094463FE0C3098B4201D3CB01C01A5241FC
:1005600083098B4201D38B01C01A524143098B424C
:1005700001D34B01C01A524103098B4201D30B0135
:10058000C01A5241C3088B4201D3CB00C01A52415A
:1005900083088B4201D38B00C01A524143088B421F
:1005A00001D34B00C01A5241411A00D201465241B8
:1005B000104670475DE0CA0F00D04942031000D3D7
:1005C0004042534000229C4603098B422DD3030A2C
:1005D0008B4212D3FC22890112BA030A8B420CD33C
:1005E000890192118B4208D3890192118B4204D365
:1005F00089013AD0921100E08909C3098B4201D3E5
:10060000CB01C01A524183098B4201D38B01C01A1E
:10061000524143098B4201D34B01C01A5241030995
:100620008B4201D30B01C01A5241C3088B4201D344
:10063000CB00C01A524183088B4201D38B00C01AF1
:100640005241D9D243088B4201D34B00C01A5241C8
:10065000411A00D20146634652415B10104601D355
:100660004042002B00D54942704763465B1000D3DF
:10067000404201B50020C046C04602BD70477047E9
:100680007047754600F024F8AE46050069465346AB
:10069000C008C000854618B020B5FFF719FF60BC40
:1006A00000274908B6460026C0C5C0C5C0C5C0C59C
:1006B000C0C5C0C5C0C5C0C5403D49008D467047D6
:1006C00010B50446C046C0462046FFF7E8FE10BD00
:1006D000004870474403002001491820ABBEFEE7E4
:1006E000260002007047000030B50E480D4B81789F
:1006F0004278080210430C4944BA087957224978D5
:1007000050434018C1B200200D3C07E01A18157B79
:100710004D405731401C1573C9B280B2A042F5DB81
:1007200030BD0000240000200000002030B50C4D3A
:10073000284600F0B9F8042811D10A4C2069042198
:10074000084320612069402108432061284600F0C9
:10075000ABF8012803D02169034A1140216130BD63
:10076000FF0F000000200240FB1F000030B5164CB8
:10077000144860614514284600F096F8042816D104
:100780001248A0601248A06020692021084320611F
:100790002069402108432061284600F085F804289C
:1007A00006D0012803D021690A4A1140216130BDD9
:1007B0002169084A103A1140216121691022114330
:1007C000F4E7000000F8FF1F002002402301674506
:1007D000AB89EFCDEF1F000008490420CA68D2079B
:1007E00001D001207047CA68520701D50220704726
:1007F000C968C906FBD503207047000000200240ED
:1008000070B506460D460F2000F04EF8042812D1B0
:100810000A4C0948A0600A48A060206910210843DA
:10082000206135800F2000F03FF8012803D02169B6
:10083000044A1140216170BD230167450020024038
:10084000AB89EFCDEF1F0000F0B506460D460F2037
:1008500000F02AF8042815D10B4C20690121084327
:10086000206135800F2000F01FF8084F042804D1C4
:10087000280C70800F2000F017F8012802D02169A1
:1008800039402161F0BD000000200240FE1F000041
:1008900003480249416003494160704723016745AD
:1008A00000200240AB89EFCD18B50346FFF794FF57
:1008B000FF2407E020460094401E0090FCD1FFF783
:1008C0008BFF5B1E012803D0002B00D1052018BD33
:1008D000002BEFD1FAE7000002498A68D207FCD06A
:1008E000086070470038014070B50924E40662686A
:1008F000FF2636011121B243C90151186160E26837
:10090000032149020A43E2600C4DA96949084900E4
:10091000A96101460A48FFF704FE010929620007A0
:10092000000F6862A86901210843A86160688B21F3
:10093000B04309014018606070BD000000380140FC
:10094000006CDC0210B5084A016811400122520710
:10095000914207D14168054C21610068FFF7A6FD6F
:100960002069804710BD00000000FE2F000000201D
:10097000F8B50D4606460024054F05E0A00039589D
:100980008019FFF761FF641CAC42F7D30120F8BD6A
:10099000440100207D20C000401EFDD270470CB5F0
:1009A00000226B461A70019206E00278019B491EF4
:1009B000D21889B2401C01920029F6D1D0B2694602
:1009C0000190087008780CBD86B00024FE480094A1
:1009D0000168274601221143016001688907FCD59F
:1009E0004168090909014160F8490B680122134374
:1009F0000B60416802221143416041680907090FF9
:100A00000A29FAD10121F04E8903B161F04D182075
:100A1000A8613020E861286A696A00010907090FA6
:100A20004118EC48FFF77DFD0146EA48FFF779FDE4
:100A3000010929620007000F686228690221084342
:100A40002861A96901200143A96170690121490454
:100A500008437061FFF71CFFDF4853210170DF4D31
:100A60000026FF38AE700D380290C01D0190287826
:100A7000012802D1AE616E612E70D548C068800732
:100A800016D5D34802214161002F01D0A86912E098
:100A90004168D34A68691154401CAE61686102998B
:100AA0004A78097812020A4351BA8142DFD11AE02A
:100AB000A869401CA8617D214901884211D9686953
:100AC00000280ED0401E81B2C548FFF768FFC44918
:100AD0006A6989182039C97F884202D001202870AC
:100AE000C5E7002FC3D0BE48C07806287ED008DCFA
:100AF00000280FD001281BD0022878D0032877D1F6
:100B0000ACE0092875D00A2874D00F2873D05A2871
:100B1000F5D1B0E15320FFF7DFFE0020FFF7DCFE48
:100B20000520FFF7D9FE0020FFF7D6FE58208DE004
:100B3000AB4F381DFFF7E4FC00BA000AF979000258
:100B400008431ED0397AF87A09064018797ABA7AB9
:100B5000090412028918401868600098012801D120
:100B6000FFF7C2FD402000F0A7F96868A9680002FD
:100B70004018FF3840210138FFF7FAFE0120A87025
:100B80001EE09248FF21C160FFF782FEFFF7CEFD15
:100B90000198FFF7B5FC00BA000AF97A0002084391
:100BA000A8608F480C30FFF7ABFC00BA010AF87B55
:100BB00009020143E960F97C012925D00020009059
:100BC000854911204E7088700120C8703B46042072
:100BD0000F461A5C3A54401C80B21028F9D31021F9
:100BE0007D48FFF7DCFE3874002305E06BE019E078
:100BF00056E196E0BEE007E1F85CFFF76DFE5B1C96
:100C00009BB2112BF1D34BE10121009102994A785B
:100C1000097812020A4351BA79182039C97F48402D
:100C20006870CDE75320FFF757FE0020FFF754FE12
:100C30000620FFF751FE0220FFF74EFE6848C079FC
:100C4000022806D00120FFF747FE5C20FFF744FE94
:100C500026E10220FFF740FE5D20F7E7604F381DD8
:100C6000FFF74EFC00BA000AF979000208435A4F18
:100C700003907E700920B8700320F870584A042051
:100C8000115C3954401C80B20828F9D3082152481D
:100C9000FFF785FE38720023F85CFFF71DFE5B1C32
:100CA0009BB2092BF8D34A488168C907FCD0FFF7EB
:100CB00071FE0398FFF718FEA8780028A3D04248D9
:100CC0004660484853E00198FFF71AFC4449000287
:100CD000C97A000A09060843C100434A890B9142B8
:100CE00003D1C10702D1048800E004683A4F09200B
:100CF0007E70B8700620F8703C71200A7871200C64
:100D0000B871200EF87108213846FFF748FE387296
:100D10000023F85CFFF7E0FD5B1C9BB2092BF8D3C6
:100D2000BEE02D4F09207E70B870F870082138465B
:100D3000FFF735FE38720023F85CFFF7CDFD5B1C32
:100D40009BB2092BF8D322488168C907FCD0002246
:100D5000FFF720FE521C92B20A2AF9D3204F381D09
:100D6000FFF7CEFB00BA000AF97900020843FFF74B
:100D7000E9FD95E0FFF7FAFC0120002703901848F1
:100D8000C01905900179194838180490FFF738FD0B
:100D90000598017904980078814202D002200390DE
:100DA00003E0BF1CBFB2102FE9D30B4F09207E70A8
:100DB000B8700A20F8703E717E71BE710398F871A8
:100DC0000821384614E000000010024000200240D4
:100DD00000380140006CDC023101002000000020DE
:100DE0002400002000F4FF1FFFFF030000F8FF1F96
:100DF000FFF7D5FD38720023F85CFFF76DFD5B1C33
:100E00009BB2092BF8D34BE00020EA680146930817
:100E10009C46AB6804E08F00DF593818491C89B242
:100E20008C45F8D891070CD09708BF000021FB181B
:100E30009207920F03E05F5C3818491C89B28A421E
:100E4000F9D81B4F0D21B9700F21F9703872010AC2
:100E50007972010CB972000EF8720C213846FFF756
:100E60009EFD38730023F85CFFF736FD5B1C9BB2D8
:100E70000D2BF8D314E0FFF759FC0D4F09207E70BD
:100E8000B8705A20F87008213846FFF788FD38728C
:100E90000023F85CFFF720FD5B1C9BB2092BF8D305
:100EA00004488168C907FCD0012028700027DEE5CE
:100EB0003101002000380140F0B5134900260E62D0
:100EC000124A134F1AE0CB69CC69D3181B7B141953
:100ED000E47B24061B19CC69CD691419A47B240476
:100EE00055196D7B2D0264191B190C6AA4003B5126
:100EF000CB691B1DCB610B6A5B1C0B620B6A8342C7
:100F0000E1D3CE610E62F0BD00000020240000207D
:100F100044010020340F00200000002024000000C5
:100F20004C040020580F002024000020C4030000BF
:100F30006804002000000000000000000000000025
:100F400000000000000000000000000000000000A1
:080F5000000000000000000099
:0400000520000409CA
:00000001FF
