:020000042000DA
:10040000A8030020B504002000F002F800F03EF838
:100410000CA030C8083824182D18A246671EAB4619
:1004200054465D46AC4201D100F030F87E460F3EA6
:100430000FCCB6460126334200D0FB1AA246AB468B
:1004400033431847640B0000840B0000103A02D3BA
:1004500078C878C1FAD8520701D330C830C101D565
:1004600004680C607047000000230024002500266B
:10047000103A01D378C1FBD8520700D330C100D560
:100480000B6070471FB51FBD10B510BD00F058FDC3
:100490001146FFF7F7FF00F019F900F070FD03B403
:1004A000FFF7F2FF03BC00F077FD000080F308883F
:1004B000704700000B4880F308880B480168090E5C
:1004C0000A4A914205D10A480A4901600A480B4983
:1004D00001600B48004700000A480B49094A0B4BD2
:1004E00070470000A8030020040000001F00000067
:1004F0001810024001000000000001400000000050
:1005000009040020A8020020A8030020A80200205F
:100510007D20C00000BF0146401E0029FBD170476E
:100520000CB5024600200190009006E01378521CA2
:10053000009818180090481E81B20029F6DC009837
:10054000C0B200900098C3B20193684600790CBD18
:1005500010B50446FD49206808400121490788423A
:1005600008D16068FA4908602068FFF79FFFF848E3
:100570000068804710BD0021F64A116026E0F64A67
:10058000F64909680F31515C0A06F34BF3490968D3
:100590000E31595C09045218F04909680D31595C53
:1005A00009025218ED4909680C31595C5118E94AA1
:1005B00012689200EA4B9950E8490968091DE74A18
:1005C0001160E4490968491CE24A1160E14909687F
:1005D0008142D4D30021E14A1160DE4A11607047A4
:1005E00030B5DD4B9B78DC4C6478240223431A46FB
:1005F000DC4B1B7857246343DB4C24781B19D9B29E
:1006000000200DE003460C33D34CE35C4B40044622
:100610000C34D14D2B550B465733D9B2431C98B2ED
:1006200013460D3B8342EDDC30BD70B505460E46EA
:10063000002407E0A200CA4B9958A200501900F00C
:1006400092FB641CB442F5D3002070BD00BFC749C3
:10065000097AC907C90F0029F9D0C4490860704751
:10066000C3480068C3490840C1490860084600689B
:10067000032189060843BE490860BF480068400757
:10068000400FBD4908600846006802210843BA4986
:100690000860B7480068012109060843B4490860AA
:1006A00000BFB34800688001C00F0028F9D0B048EF
:1006B000406800090001801CAD49486000BFAC489B
:1006C00040680A2108400A28F9D170471FB5002464
:1006D00000200390002502900190FFF7C1FFA4487D
:1006E0008069A6490843A249886118209F4988610A
:1006F0003020C861FF2039300862084600690221B5
:1007000008439A49086108468069012108439749CE
:1007100088619B48406AFF210905884398494862DF
:100720000846406A97490843954948620846406A26
:10073000FF2109018843924948620846406AFF2127
:10074000113108438E49486208464068000B000397
:100750004860084640688C490843894948605320EE
:100760008A4908700020487000F072FA5CE28848FC
:100770000078012806D10020864908608649086073
:10078000834908707948C06802210840002820D0B9
:10079000022076494861029800281FD10846017955
:1007A0006D487D4A126881547B480068401C7A4934
:1007B0000860002077490860674840780002664971
:1007C0008978084374490968884207D1012002905A
:1007D00004E070480068401C6E4908606D4800687D
:1007E0007D214901884215D96B480068002811D045
:1007F00069480088401E81B25748FFF791FE66495C
:100800000968491E544A515C884203D0012060495E
:10081000087009E2029801287ED14F48C078032869
:100820007BD006DC00280BD0012819D0022875D116
:10083000DCE00F2873D0202872D02128F7D1C5E141
:100840005320FFF703FF0020FFF700FF0520FFF70D
:10085000FDFE0020FFF7FAFE5820FFF7F7FEDCE16F
:100860003D48007900063C494979090408433A4962
:100870008979090208433849C979084303900398E4
:10088000002822D03448007A00063349497A090406
:1008900040183149897A090240182F49C97A40180D
:1008A000304908600198012801D1FFF799FE4020E6
:1008B000FFF761FE2B490968491E0902374A126891
:1008C00088184021FFF7B1FE6EE0FF202A49C8607A
:1008D00000F0BEF900F024FA1F48007A00061E4915
:1008E000497A090408431C49897A090208431A49CC
:1008F000C97A0843294908601748007B0006164951
:10090000497B090408431449897B090208431249B9
:10091000C97B0843224904E085E184E07CE1F0E002
:1009200036E108600C48C07C01283BD101900A48A0
:1009300087780146497809020F43C07B791E064A31
:10094000515C4840084908702EE000000000FE2F6E
:1009500000000020240000202800002020000020AB
:1009600048010020040000201C0000200038014045
:1009700000100240FFFF8F030020024014400000DF
:100980000008014077770770BB08000035010020A0
:10099000100000200C00002008000020140000209F
:1009A00018000020002001900020A049487011206C
:1009B00088700120C870042405E09D48005D9B49B3
:1009C0000855601C84B2102CF7DB10219748FFF704
:1009D000A7FD96490874002405E09449085DFFF7D7
:1009E00035FE601C84B2112CF7DB16E15320FFF7B3
:1009F0002DFE0020FFF72AFE0620FFF727FE02202B
:100A0000FFF724FE8A48C079022805D1FFF71EFEB1
:100A10005D20FFF71BFE05E00120FFF717FE5C20BD
:100A2000FFF714FEF9E08248007900068049497911
:100A3000090408437E498979090208437C49C97938
:100A4000084306460920794988700320C8700424A9
:100A500005E07748005D75490855601C84B2082C94
:100A6000F7DB08217148FFF75BFD7049087200242D
:100A700005E06E49085DFFF7E9FD601C84B2092CB2
:100A8000F7DB00BF6B48007AC007C00F0028F9D021
:100A900069484068FF21090188431121C9014018B4
:100AA0006549486063488069400840006149886141
:100AB0003101624800F094F90A21009000F090F9A9
:100AC000052907D931015E4800F08AF9401C5949CF
:100AD000086205E031015A4800F082F95549086280
:100AE000544880690121084352498861524840684E
:100AF000FF21090188438B21090140184E494860B4
:100B00008BE00025002406E0A0004E490968085843
:100B10004519601C84B24C4800688008A042F3D894
:100B2000494800788007800F002812D000240AE08E
:100B30004548006880088000424909684018005D07
:100B40004519601C84B2404800788007800FA0429D
:100B5000EED80D20354988700F20C8700D7228041A
:100B6000000E48722802000E8872280EC8720C21EE
:100B70002E48FFF7D5FC2D490873002405E02B49CA
:100B8000085DFFF763FD601C84B20D2CF7DB44E0C9
:100B90000920264988702020C8705620087131200D
:100BA00048712E2088713120C87108211F48FFF735
:100BB000B7FC1E490872002405E01C49085DFFF7D8
:100BC00045FD601C84B2092CF7DB26E00D20174997
:100BD00088702120C8704620087130204871332069
:100BE00088713120C87143200872312048722E204C
:100BF00088723020C8720C210C48FFF791FC0B4919
:100C00000873002405E00949085DFFF71FFD601C1B
:100C100084B20D2CF7DB00E000BF00BF01200B49C0
:100C200008700020029000BFA1E5000035010020FF
:100C300028000020003801400008014000389C1CBA
:100C4000006CDC02140000201800002010000020BE
:100C50005E485F4948605F484860704704205C49CF
:100C6000C968C907C90F002901D0012010E05849FF
:100C7000C96804221140002901D0022008E054492B
:100C8000C96810221140002901D0032000E004208F
:100C9000704708B500200090FF20009002E0009807
:100CA000401E009000980028F9D108BD70B5044698
:100CB0000425FFF7D3FF054605E0FFF7EAFFFFF73E
:100CC000CDFF0546641E012D01D1002CF5D1002C6D
:100CD00000D10525284670BD70B5054604243E4860
:100CE000FFF7E4FF0446042C18D1394800690221BB
:100CF00008433749086108464561006940210843B7
:100D0000334908613448FFF7D1FF0446012C05D070
:100D10002F480069314908402D490861204670BDBF
:100D200010B504242C48FFF7C1FF0446042C18D149
:100D300027480069042108432549086108460069DD
:100D400040210843224908612348FFF7AFFF0446CA
:100D5000012C06D01E4800692049891E08401C4904
:100D60000861204610BD70B505460E4604241A4899
:100D7000FFF79CFF0446042C25D11548006901218A
:100D80000843134908612E801348FFF78FFF04467C
:100D9000042C0FD1300C68800F48FFF787FF044602
:100DA000012C10D00A4800690C49491C0840084928
:100DB000086108E0012C06D0054800690749491C74
:100DC000084003490861204670BD000023016745C3
:100DD00000200240AB89EFCDFF3F0000FD1F000067
:100DE000002203098B422CD3030A8B4211D3002328
:100DF0009C464EE003460B433CD4002243088B4202
:100E000031D303098B421CD3030A8B4201D394468E
:100E10003FE0C3098B4201D3CB01C01A5241830981
:100E20008B4201D38B01C01A524143098B4201D33B
:100E30004B01C01A524103098B4201D30B01C01A66
:100E40005241C3088B4201D3CB00C01A52418308E0
:100E50008B4201D38B00C01A524143088B4201D30D
:100E60004B00C01A5241411A00D20146524110466D
:100E700070475DE0CA0F00D04942031000D34042E2
:100E8000534000229C4603098B422DD3030A8B4218
:100E900012D3FC22890112BA030A8B420CD38901B6
:100EA00092118B4208D3890192118B4204D389019C
:100EB0003AD0921100E08909C3098B4201D3CB01DA
:100EC000C01A524183098B4201D38B01C01A52418F
:100ED00043098B4201D34B01C01A524103098B4293
:100EE00001D30B01C01A5241C3088B4201D3CB007E
:100EF000C01A524183088B4201D38B00C01A524161
:100F0000D9D243088B4201D34B00C01A5241411A37
:100F100000D20146634652415B10104601D3404265
:100F2000002B00D54942704763465B1000D3404216
:100F300001B50020C046C04602BD704770477047EB
:100F4000754600F025F8AE46050069465346C008D0
:100F5000C000854618B020B5FFF7BEFA60BC002778
:100F60004908B6460026C0C5C0C5C0C5C0C5C0C575
:100F7000C0C5C0C5C0C5403D49008D46704710B5CD
:100F80000446C046C0462046FFF789FA10BD00005F
:100F9000004870474802002001491820ABBEFEE718
:100FA0002600020070470000C80F0020000000204B
:100FB000280000004C040020F00F00202800002032
:100FC0008003000068040020000000000000000012
:100FD0000000000000000000000000000000000011
:100FE0000000000000000000000000000000000001
:0400000520000409CA
:00000001FF
