:020000042000DA
:1004000000550020F10D002000F002F800F03AF84D
:100410000AA090E8000C82448344AAF10107DA455F
:1004200001D100F02FF8AFF2090EBAE80F0013F077
:10043000010F18BFFB1A43F001031847180D000005
:10044000480D0000103A24BF78C878C1FAD8520786
:1004500024BF30C830C144BF04680C60704700003E
:100460000023002400250026103A28BF78C1FBD8BD
:10047000520728BF30C148BF0B6070471FB51FBD72
:1004800010B510BD00F02BFE1146FFF7F7FF00F08E
:100490003BF900F049FE03B4FFF7F2FF03BC00F0A4
:1004A00051FE000080F30888704700004FF47A7016
:1004B000401EFDD270470CB500228DF8002001923D
:1004C00006E010F8012B019B491E1A4489B20192E3
:1004D0000029F6D1D0B201908DF800009DF80000FF
:1004E0000CBD10B5FE4A01681140B1F1005F09D1A1
:1004F0004168FC4C21610068FFF7D4FF2069BDE82A
:100500001040004710BDF0B5F64900240C62F64AD1
:1005100002F590751AE0CB69CE6913441B7B164433
:10052000F67B03EB0663CE69CF691644B67B3604CF
:1005300017447F7B06EB072633440E6A45F82630C6
:10054000CB691B1DCB610B6A5B1C0B620B6A834280
:10055000E1D3CC610C62F0BD30B5E34B5722B3F868
:10056000010045BADF480179407851430844C1B2DF
:1005700000200D3D07E01A18147B4C405731401CF9
:100580001473C9B280B2A842F5DB30BD70B5D5494D
:1005900000250D62D44A02F5087310E0CC69CE69DB
:1005A0001444247B1644767B04EB06240E6A23F85D
:1005B0001640CC69A41CCC610C6A641C0C620C6AE9
:1005C0008442EBD3CD610D6270BD2DE9F04116463A
:1005D0000F460546002407E037F81410284600F0BF
:1005E00037FD641CA4B2AD1CB442F5D3BDE8F08164
:1005F0002DE9F0410D4606460024BC4F06E057F8B1
:10060000241006EB840000F003FD641CAC42F6D31A
:100610000120EBE7B6490A68D207FCD0B449083993
:1006200008607047B34800210368012202EB93631E
:100630000268C2F30252521CB3FBF2F2A94B9A7049
:10064000026842F00102026002689207FCD54FF492
:1006500080624260426822F480324260026822F086
:1006600080720260026822F0F8420260026842F082
:10067000E0520260A04A136803F0F80313601368A5
:1006800043F003031360026842F080720260026864
:100690009201FCD5426822F003024260426842F0B7
:1006A0000202426002E04168C1F381010229FAD1ED
:1006B000704730B54FF090414A6822F47F6242F4AF
:1006C00008624A60CA6842F4C062CA60884A10324E
:1006D000136823F001031360884B854DB3FBF0F4DE
:1006E000240918352C60B3FBF0F02B1D00F00F002F
:1006F0001860106840F001001060486820F47F60C6
:1007000040F40B60486030BD002508B52C46AB4670
:10071000FFF788FF7748816A41F003018162C16A6F
:1007200041F01001C162724B182010331860302064
:10073000191D0860DFF8AC816D4998F802001C3182
:100740000A1F01282ED00E68176806EB07166C4F9B
:100750007843B0FBF6F0694EB6FBF0F73F0917603F
:10076000B6FBF0F000F00F00086061480830016847
:1007700041F002010160186840F00100186000F0CB
:10078000D3FBDFF868915321A9F11309002689F8FA
:10079000001088F803604FF0090A98F8000001285B
:1007A00008D00DE00868166800EB0610554EB6FB41
:1007B000F0F0D0E7C8F81860C8F8146088F8006056
:1007C0004B48001D0068800714D5494902200C31B0
:1007D0000860A4B94648001F0368434AD8F81400CB
:1007E0001354401CC8E90506B2F8011049BA814209
:1007F000D3D11DE0D8F81810491CC8F81810D8F843
:1008000018004746B0F57A6F10D9786970B1401E6C
:1008100081B23548FFF74FFE33497A69114411F828
:10082000011C884202D001203870B6E7002CB4D0F9
:1008300000204FF47A71401C80B28842FBD32A4FCB
:10084000F87807284BD007DC07287DD2DFE800F0D6
:10085000111FA7C27CF8F6000F2876D004DC092807
:1008600074D00A2870D1B9E1202870D05A28F9D163
:100870008DE25320FFF7CEFE0020FFF7CBFE0520D0
:10088000FFF7C8FE0020FFF7C5FE58209AE0786801
:10089000F97900BA20F0FF00084335D0F87A397AA8
:1008A000BA7A00EB0160797A4446090401EB02212F
:1008B0000844C8F80400BBF1010F01D1FFF74CFE5A
:1008C0004020FFF720FED4E9011000EB0120402179
:1008D000A0F58070FFF78CFE0120E07030E005E1AC
:1008E0000000FE2F00000020240000204401002012
:1008F00008380140001002400020024000D8B8052E
:10090000001BB70000127A00FE49FF20C86000F00B
:100910000BFB00F02DFBB868F97A00BA20F0FF005D
:100920000843C8F80800F86800BA20F0FF01F87B17
:100930000143C8F80C10F97C012924D04FF0000BBA
:100940004C4689F8016003E020E280E116E1C4E151
:10095000112089F80200012089F803000420395C85
:100960002154401C80B21028F9D31021E648FFF72B
:10097000A2FD20740023E05CFFF74CFE5B1C9BB2E1
:10098000112BF8D326E2B7F801104FF0010B49BA4A
:10099000394411F8011C484088F80100D0E7532081
:1009A000FFF738FE0020FFF735FE0620FFF732FE86
:1009B0000220FFF72FFEF879022806D00120FFF76A
:1009C00029FE5C20FFF726FE04E20220FFF722FE4C
:1009D0005D20F7E778684C4600BA20F0FF0CF87904
:1009E00089F801604CEA000C89F802A0032089F81C
:1009F00003000420395C2154401C80B20828F9D33C
:100A00000821C148FFF757FD20720023E05CFFF783
:100A100001FE5B1C9BB2092BF8D3BC480168C907D7
:100A2000FCD0FFF743FD6046FFF743FE98F8030054
:100A30000028A7D0B6484660B648CCE027E0FFE7DC
:100A4000F97AB868FA7B61F31F60F9684C4662F383
:100A50001F61016089F8016089F802A0052089F80A
:100A6000030089F8046089F8056089F8066089F850
:100A700007600821A448FFF71EFD20720023E05CF8
:100A8000FFF7C8FD5B1C9BB2092BF8D3A2E1F97AF2
:100A9000B868A14A61F31F60C0F3D121914203D12C
:100AA000C10702D1058800E0056889F8016089F86E
:100AB00002A0062089F8030089F80450280A89F862
:100AC0000500280C89F80600280E89F807004C4616
:100AD00008218D48FFF7EFFC20720023E05CFFF750
:100AE00099FD5B1C9BB2092BF8D373E1F97AB868C6
:100AF000FC8861F31F6000903879797908430128F8
:100B000002D1009800F016FA6008FFF73FFD620876
:100B100082490098FFF759FD04F10D00010A009089
:100B200089F8011089F80200072089F8030089F884
:100B3000046089F8056089F80660CC4689F807608A
:100B4000082004F10C0104E03A5C0CF80020401C81
:100B500080B28842F8D389B26B48FFF7ACFC0CEB4B
:100B600004010023087305E01CF80300FFF752FDA1
:100B70005B1C9BB200988342F6D32BE189F801609D
:100B800089F802A089F803A089F8046089F8056053
:100B900089F806604C4689F8076008215A48FFF733
:100BA0008AFC20720023E05CFFF734FD5B1C9BB2E3
:100BB000092BF8D355480168C907FCD00022FFF77C
:100BC00075FC521C92B20A2AF9D37868F97900BAF6
:100BD00020F0FF000843FFF784FCFBE000F078F909
:100BE0000120002400904E4807194E4839792044CE
:100BF00000F047FA4C483979204490F800088142C7
:100C000002D00220009003E0A41CA4B2102CEAD36E
:100C100089F8016089F802A00A2089F8030089F8A0
:100C2000046089F8056089F80660009889F8070073
:100C30004C4608213448FFF73EFC20720023E05C5C
:100C4000FFF7E8FC5B1C9BB2092BF8D3C2E0D8E9A4
:100C500002320020014604E053F82140491C2044A0
:100C600089B2B1EB920FF7D391070CD022F00304B5
:100C70000021234402F0030203E05C5C491C204491
:100C800089B28A42F9D889F801600D2189F80210E9
:100C90000F2189F8031089F8046089F8056089F844
:100CA000066089F8076089F80800010A89F80910C8
:100CB000010C89F80A10000E89F80B004C460C2133
:100CC0001148FFF7F8FB20730023E05CFFF7A2FC5C
:100CD0005B1C9BB20D2BF8D37CE089F8016089F88E
:100CE00002A0202089F80300432089F80400332063
:100CF00089F8050089F80600312089F807004C467C
:100D0000B87813E00020024031010020083801408B
:100D10000010024000F4FF1FFFFF03004402002008
:100D20002400002000F8FF1F00F0FF1F062807D94D
:100D30003879032804D10B21A17020727879607270
:100D4000A078401E81B22848FFF7B5FB2649A2785B
:100D5000491E0023505404E0E05CFFF75BFC5B1C81
:100D60009BB2A0789842F7D820480168C907FCD008
:100D7000B87806282ED9387903282BD1FFF796FBAF
:100D8000607A4FF416614843FFF793FC22E000F0CD
:100D90000EF900F0EDF800F06FF889F8016089F8BD
:100DA00002A05A2089F8030089F8046089F80560D8
:100DB00089F806604C4689F8076008210A48FFF761
:100DC0007AFB20720023E05CFFF724FC5B1C9BB2E3
:100DD000092BF8D305480168C907FCD0012088F821
:100DE00000000024D9E4000031010020083801404F
:100DF00008480047FEE7FEE7FEE7FEE7FEE7FEE7FE
:100E0000FEE7FEE7FEE7FEE703480449044A054B18
:100E10007047000009040020004F0020005500200A
:100E20000051002000510020A6490420CA68D207C2
:100E300001D001207047CA68520701D502207047CF
:100E4000C968C906FBD50320704718B50346FFF7EC
:100E5000EBFFFF2407E020460094401E0090FCD1E9
:100E6000FFF7E2FF5B1E012803D0002B00D1052015
:100E700018BD002BEFD1FAE730B5924C9248606173
:100E800045142846FFF7E1FF042817D18F48A060DA
:100E90008F48A060206940F020002061206940F068
:100EA000400020612846FFF7D0FF042807D0012822
:100EB00004D0216941F6EF721140216130BD2169F2
:100EC00041F6DF7211402161216941F01001F4E720
:100ED00030B57C4C7F48606145142846FFF7B5FF6C
:100EE000042817D17948A0607948A060206940F0B3
:100EF00020002061206940F0400020612846FFF773
:100F0000A4FF042807D0012804D0216941F6EF721C
:100F10001140216130BD216941F6DF72114021612C
:100F2000216941F01001F4E7664868494160684969
:100F30004160704770B5054640F6FF763046FFF7D2
:100F400084FF042813D15F4C206940F00200206127
:100F50006561206940F0400020613046FFF775FF71
:100F6000012804D0216941F6FD721140216170BD54
:100F700030B5544C4FF00060606140F6FF75284674
:100F8000FFF763FF042811D1206940F004002061BD
:100F9000206940F0400020612846FFF756FF0128F5
:100FA00004D0216941F6FB721140216130BD70B55A
:100FB000444C484D65616E143046FFF746FF0428E7
:100FC00025D14248A0604248A060206940F020003E
:100FD0002061206940F0400020613046FFF735FF76
:100FE00041F6EF7604280DD1206941F6DF71084003
:100FF0002061206940F010002061A52028800F208A
:10100000FFF723FF012802D021693140216170BD23
:10101000F0B506460D460F20FFF717FF042816D13E
:10102000284C206940F00100206135800F20FFF737
:101030000CFF41F6FE77042804D1280C70800F20A5
:10104000FFF703FF012802D0216939402161F0BD7B
:1010500070B506460D460F20FFF7F7FE04280FD1A6
:10106000184C206940F00100206135800F20FFF707
:10107000ECFE012804D0216941F6FE721140216185
:1010800070BD70B506460D460F20FFF7DEFE042842
:1010900013D10C4C0D48A0600D48A060206940F0B1
:1010A0001000206135800F20FFF7CFFE012804D00B
:1010B000216941F6EF721140216170BD0149C8609C
:1010C00070470000002002400000FE1F230167451A
:1010D000AB89EFCD00F8FF1F70477047704775462A
:1010E00000F02CF8AE4605006946534620F0070094
:1010F000854618B020B5FFF787FEBDE820404FF0C9
:1011000000064FF000074FF000084FF0000B21F0F1
:101110000701AC46ACE8C009ACE8C009ACE8C009BE
:10112000ACE8C0098D46704710B50446AFF30080A7
:101130002046BDE81040FFF7AEB9000000487047F8
:101140004403002001491820ABBEFEE72600020040
:1011500070470000841100200000002024000000DF
:1011600044040020A8110020240000208003000077
:1011700060040020A8110020004F0020000600009D
:1011800060040020000000000000000000000000DB
:10119000000000000000000000000000000000004F
:0811A000000000000000000047
:0400000520000409CA
:00000001FF
