:020000042000DA
:10040000481C0020850D002000F002F800F03EF8A6
:100410000CA030C8083824182D18A246671EAB4619
:1004200054465D46AC4201D100F030F87E460F3EA6
:100430000FCCB6460126334200D0FB1AA246AB468B
:1004400033431847EC1200001C130000103A02D38B
:1004500078C878C1FAD8520701D330C830C101D565
:1004600004680C607047000000230024002500266B
:10047000103A01D378C1FBD8520700D330C100D560
:100480000B6070471FB51FBD10B510BD01F011F90D
:100490001146FFF7F7FF00F034F901F029F903B432
:1004A000FFF7F2FF03BC01F02FF9000080F308888A
:1004B000704700007D20C000401EFDD270470CB583
:1004C00000226B461A70019206E00278019B491ED9
:1004D000D21889B2401C01920029F6D1D0B26946E7
:1004E0000190087008780CBD10B5F84A01681140F9
:1004F00001225207914207D14168F54C2161006801
:10050000FFF7D4FF2069804710BDF0B5F049002601
:100510000E62F04AF04F1AE0CB69CC69D3181B7B0E
:100520001419E47B24061B19CC69CD691419A47B2A
:10053000240455196D7B2D0264191B190C6AA40043
:100540003B51CB691B1DCB610B6A5B1C0B620B6AB9
:100550008342E1D3CE610E62F0BD30B5DD48DD4BA4
:100560008178427808021043D94944BA0879572261
:10057000497850434018C1B200200D3C07E01A18DA
:10058000157B4D405731401C1573C9B280B2A04253
:10059000F5DB30BD70B5CE4900250D62CD4ACF4E9A
:1005A00010E0CB69CC69D3185B7B1B021419247B48
:1005B0001B190C6A64003353CB699B1CCB610B6A1B
:1005C0005B1C0B620B6A8342EBD3CD610D6270BD85
:1005D000F8B516460F460546002407E06000395A74
:1005E000284600F07BFD641CA4B2AD1CB442F5D3D8
:1005F000F8BDF8B50D4606460024B74F05E0A0004B
:100600003958801900F04AFD641CAC42F7D3012030
:10061000F8BDB3498A68D207FCD00860704770B54E
:10062000B04C002520684002410F2068491C800E14
:10063000401C00F08EFFA649887020680121084305
:10064000206020688007FCD501208002606060681F
:100650000121090488436060206809028843206002
:1006600020681F229206904320602068072292068D
:10067000104320609C480268F8231A400260026818
:1006800003231A4302602068084320602068800129
:10069000FCD56068800880006060606802210843C3
:1006A000606002E060680007850F022DFAD170BD1E
:1006B00070B50924E4066268FF2636011121B243B1
:1006C000C90151186160E268032149020A43E260EE
:1006D000834DA96949084900A9610146834800F092
:1006E00038FF010929620007000F6862A86901212B
:1006F0000843A86160688B21B0430901401860601D
:1007000070BD002486B025460194FFF788FF754E22
:10071000B069012189030843B061714F1820B861A5
:100720003020F8616A488078012833D0396A7A6AC3
:10073000090189186E4A504300F00BFF01466B48CF
:1007400000F007FF02093A620007000F786238697B
:10075000022210433861BA6901200243BA6161483C
:100760004169012252041143416100F052FB5A4891
:10077000532113380170564856490026C670491C4B
:1007800003910B310291091F009151480078012813
:1007900006D009E0386A796A000141185548CBE76C
:1007A0004B488661466106704D48C068800715D584
:1007B0004B4802214161002D14D142684449454B08
:1007C00048691A54401C8E61486103994A780B7835
:1007D0001102194349BA8142D7D11CE03C488169D2
:1007E000491C81613A4F4449B869884211D97869F6
:1007F00000280ED0401E81B23648FFF760FE354912
:100800007A6989182039C97F884202D0012038705E
:10081000BBE7002DB9D000207D21C900401C80B26B
:100820008842FBD32B4FF87807284ED007DC030013
:1008300000F071FF071220B3CE88FDFC88000F285E
:100840007ED004DC09287CD00A287BD1B1E12028A5
:1008500079D05A28F9D16CE25320FFF7DAFE002054
:10086000FFF7D7FE0520FFF7D4FE0020FFF7D1FEEB
:100870005820A5E0174D281D00F05AFE00BA000AC6
:10088000E9790002084339D02846027AC17A120673
:100890008918427A807A1204000210180C4D081848
:1008A00068600198012801D1FFF757FE4020FFF74B
:1008B0002CFE6868A96800024018FF384021013802
:1008C000FFF797FE0120E87038E00AE10000FE2FF4
:1008D000001800202418002044190020441A002089
:1008E00000380140001002400020024000D8B80546
:1008F000001BB70000127A0088130000FE49FF2099
:10090000C86000F086FA00F0D4FA009800F010FEFB
:10091000FA4D00BA000AE97A0002F94F0843B860BC
:10092000029800F005FE00BA010AE87B09020143C3
:10093000F960E97C012922D000200190F14D03E00B
:100940006AE10EE1F4E19FE16E701120A8700120D0
:10095000E870EA4904200A5C2A54401C80B210283E
:10096000F9D31021E748FFF7AAFD28740023E85CBB
:10097000FFF74FFE5B1C9BB2112BF8D3F2E1012174
:10098000019103994A780B781102194349BA691801
:100990002039C97F48407870D0E75320FFF739FEEF
:1009A0000020FFF736FE0620FFF733FE0220FFF798
:1009B00030FEF879022806D00120FFF72AFE5C20DD
:1009C000FFF727FECEE10220FFF723FE5D20F7E7C9
:1009D000381D00F0ADFD00BA000AF97900020843A5
:1009E000C84D84466E700920A8700320E87004206A
:1009F000395C2954401C80B20828F9D30821C14829
:100A0000FFF75DFD28720023E85CFFF702FE5B1C28
:100A10009BB2092BF8D3BC488168C907FCD0FFF70B
:100A200049FD6046FFF744FEB54801E02CE006E0D2
:100A3000C0780028A2D0B5484660B548B6E0009816
:100A400000F076FD0502F87A2D0A000605430298AB
:100A500000F06EFDF97B0002000A090608432860D9
:100A6000A84D09206E70A8700520E870082128465E
:100A7000FFF725FD28720023E85CFFF7CAFD5B1C29
:100A80009BB2092BF8D36DE1009800F051FDF97A83
:100A90000002000A09060843C1009E4A890B9142E0
:100AA00003D1C10702D1048800E00468954D0920F4
:100AB0006E70A8700620E8702C71200A6871200CF6
:100AC000A871200EE87108212846FFF7F8FC28726B
:100AD0000023E85CFFF79DFD5B1C9BB2092BF8D35C
:100AE00040E1864F0098FD8800F022FDF97A00026F
:100AF000000A0906084304903879797908430128E7
:100B000002D1049800F0B9F96808FFF743FDE80343
:100B1000020C81490498FFF75BFD2F460D37794A97
:100B2000380A507097700720D0700820791E05E0B1
:100B3000724A135C734A1354401C80B28842F7D344
:100B400089B27048FFF7BBFC6E4B5919087300253A
:100B500004E0585DFFF75DFD6D1CADB2BD42F8D3FA
:100B600000E1684D09206E70A870E87008212846E1
:100B7000FFF7A5FC28720023E85CFFF74AFD5B1C29
:100B80009BB2092BF8D360488168C907FCD00022CA
:100B9000FFF790FC521C92B20A2AF9D3381D00F0DC
:100BA000C7FC00BA000AF97900020843FFF79CFC71
:100BB000D8E000F0C5F90120002504904F48401905
:100BC0000590017955482818074600F0A0FA0598C5
:100BD00039780079884202D00220049003E0AD1CED
:100BE000ADB2102DEAD3474D09206E70A8700A20CF
:100BF000E8702E716E71AE710498E8710821284674
:100C0000FFF75DFC28720023E85CFFF702FD5B1C28
:100C10009BB2092BF8D3A5E0394B0020DA680146D6
:100C200095089B6804E08F00DF593818491C89B289
:100C30008D42F8D891070CD09508AD000021EB1833
:100C40009207920F03E05D5C2818491C89B28A4222
:100C5000F9D82C4D0D216E70A9700F21E970287202
:100C6000010A6972010CA972000EE8720C21284673
:100C7000FFF725FC28730023E85CFFF7CAFC5B1C28
:100C80009BB20D2BF8D36DE01E4D09206E70A8703D
:100C90002020E87043202871302068713320A8712B
:100CA0003120E871B878062807D93879032804D1AB
:100CB0000B21A970287278796872A878401E81B2D9
:100CC0001048FFF7FCFB0F49AA78491E5054002337
:100CD00004E0E85CFFF79DFC5B1C9BB2A87898429F
:100CE000F7D809488168C907FCD0B878062839D9EF
:100CF0003879032836D113E0002002402418002060
:100D00000018002031190020003801400010024076
:100D100000F4FF1FFFFF0300441A002000F8FF1F2C
:100D2000FFF7C8FB687A4B2149014843FFF7C0FC35
:100D300018E000F05DF900F0BCF800F0D5F80E4DB9
:100D400009206E70A8705A20E87008212846FFF725
:100D5000B6FB28720023E85CFFF75BFC5B1C9BB2D0
:100D6000092BF8D305488168C907FCD00120044944
:100D70000025087009E50000311900200038014005
:100D8000001800200B4880F308880B480168090E02
:100D90000A4A914205D10A480A4901600A480B49AA
:100DA00001600B48004700000A480B49094A0B4BF9
:100DB00070470000481C0020040000001F000000D5
:100DC0001810024001000000000001400000000077
:100DD00009040020481B0020481C0020481B00205C
:100DE000FA4A116838231940014311607047F749E6
:100DF0000A6808239A430A600A6802430A60704737
:100E0000F2490A6810239A430A600A6802430A609A
:100E10007047EE48EE494160EE4941607047EB484B
:100E200001698022114301617047E8490420CA68C2
:100E3000D20701D001207047CA68520701D50220AD
:100E40007047C968C906FBD50320704718B503462B
:100E5000FFF7EBFFFF2407E020460094401E0090C0
:100E6000FCD1FFF7E2FF5B1E012803D0002B00D16D
:100E7000052018BD002BEFD1FAE770B5D64E054618
:100E80003046FFF7E3FF042812D1D04C206902213D
:100E90000843206165612069402108432061304694
:100EA000FFF7D4FF012803D02169CC4A114021610A
:100EB00070BD30B5C84D2846FFF7C8FF042812D1D1
:100EC000C24C206904210843206120694021084365
:100ED00020612846FFF7BAFF012804D02169BF4AE4
:100EE000921E1140216130BD30B5B84CBC486061E4
:100EF00045142846FFF7AAFF042817D1B448A0607C
:100F0000B448A06020692021084320612069402165
:100F1000084320612846FFF799FF042807D00128DD
:100F200004D02169AD4A0E3A1140216130BD2169DA
:100F3000AA4A1E3A11402161216910221143F4E7A7
:100F400030B5A24CA748606145142846FFF77EFFE4
:100F5000042817D19E48A0609E48A06020692021E7
:100F60000843206120694021084320612846FFF79B
:100F70006DFF042807D0012804D02169974A0E3A52
:100F80001140216130BD2169944A1E3A114021610E
:100F9000216910221143F4E730B58C4C9048606110
:100FA00045142846FFF752FF042817D18848A0604F
:100FB0008848A060206920210843206120694021E1
:100FC000084320612846FFF741FF042807D0012885
:100FD00004D02169814A0E3A1140216130BD216956
:100FE0007E4A1E3A11402161216910221143F4E723
:100FF00070B5764C7B4D65616E143046FFF726FF69
:10100000042825D17248A0607248A0602069202180
:101010000843206120694021084320613046FFF7E2
:1010200015FF6E4E0E3E04280DD120696B491E3906
:10103000084020612069102108432061A5202880F4
:101040000F20FFF703FF012802D021693140216101
:1010500070BD30B55D4C64486061206963490843E8
:1010600020615D4D2846FFF7F1FE042815D1584850
:10107000A0605848A06020692021084320612069B1
:101080004021084320612846FFF7E0FE012804D0F4
:101090002169524A0E3A1140216130BDF0B5064631
:1010A0000D460F20FFF7D2FE042816D1474C2069C9
:1010B00001210843206135800F20FFF7C7FE474F0D
:1010C0007F1C042804D1280C70800F20FFF7BEFE7F
:1010D000012802D0216939402161F0BD70B5064672
:1010E0000D460F20FFF7B2FE04280FD1374C2069C0
:1010F00001210843206135800F20FFF7A7FE01285A
:1011000004D02169354A521C1140216170BD70B56F
:1011100006460D460F20FFF799FE042813D12B4CED
:101120002B48A0602B48A060206910210843206153
:1011300035800F20FFF78AFE012804D02169274A55
:101140000E3A1140216170BDF0B5C04301040E0E8E
:101150000102C7B2040E0D0E0F20FFF777FE042820
:1011600032D11A491A4A8A601A4A8A600A691023D7
:101170001A430A61FF2F06D01A4807810F20FFF794
:1011800065FE042818D1FF2E06D0164846810F2090
:10119000FFF75CFE04280FD1FF2D06D01148858192
:1011A0000F20FFF753FE042806D1FF2C06D00D4870
:1011B000C4810F20FFF74AFE012805D0034A1169B8
:1011C000064B0E3B19401161F0BD000000200240AB
:1011D00023016745AB89EFCDFF0F0000FD1F000025
:1011E0000000FE1F00F8FF1F00F4FF1F0000BAA55B
:1011F000F0B5C44CC24D064665616F143846FFF722
:1012000025FE0428E0D1C048A060C048A060206945
:10121000202108432061206940210843206138468D
:10122000FFF714FEBA49042805D00128CCD0226962
:101230000A402261C8E72069084020612069102126
:1012400008432061002E01D0002000E0A520288066
:101250003846FFF7FBFD0128B6D02169AC4A1032B1
:1012600011402161B0E7F0B50546A64CA6481646E8
:101270000F46A060A548A0600F20FFF7E7FD0428F7
:10128000A2D120691021084320613D433543F82055
:1012900005439B4845800F20FFF7D8FD012893D0D8
:1012A00021699B4A1032114021618DE79548C06940
:1012B000800870479348006A704792490020C969C6
:1012C000890700D5012070478E49002009688906EA
:1012D00000D5012070478B4A0029116901D00143D4
:1012E00000E081431161704701460020854A0129D1
:1012F00003D0D2680A4203D17047D169C907FBD035
:10130000012070477F49C860704730B5814D28463D
:10131000FFF79CFD042829D17A4C7B48A0607B48CC
:10132000A06020687C490843206020697B4908430D
:10133000206120692021084320617948606120698B
:101340004021084320612846FFF780FD04280ED085
:10135000012804D021696E4A1032114021612169AF
:1013600089B2216121688905890D216030BD21691B
:10137000674AF2E770B5674E05463046FFF766FDEF
:10138000042819D15F4C6048A0606048A0602069C3
:1013900020210843206165612069402108432061C4
:1013A0003046FFF753FD042807D0012804D02169F7
:1013B000574A10321140216170BD2169544AF9E742
:1013C00000B5FFF726FDFFF774FD5648FFF7D2FF83
:1013D00000BD70B506460D460F20FFF737FD042807
:1013E00013D1484C4848A0604848A06020691021AB
:1013F0000843206135800F20FFF728FD012804D025
:101400002169434A10321140216170BD70B50D460B
:101410004549144604224618FFF7FBFC06E02988DC
:101420003046AD1CFFF7D5FF0246B61C2046641EB1
:10143000A4B20028F3D1104670BD3B4BC01803E0A6
:1014400003880B80801C891C1346521E92B2002B0D
:10145000F6D1704730B50C460546FFF7DAFC324846
:10146000FFF788FFA1B23148FFF7B3FF2F48210CE7
:10147000801CFFF7AEFF2D48A9B2001DFFF7A9FFA2
:101480002A48290C801DFFF7A4FF30BDF0B5254B7D
:101490008000C418204610308446D0430006D6B2DF
:1014A000000C0643FF2000020346170A93431F4324
:1014B000CB431B060D0A8843CAB21B0C1A430543D3
:1014C00011462046FFF785FF3146A01CFFF781FF3C
:1014D00029466046FFF77DFF60463946801CFFF7CE
:1014E00078FF71E6007870470088704700687047A1
:1014F00003E00B880380801C891C521EF9D27047C0
:1015000000F8FF1F0020024023016745AB89EFCDA3
:10151000DF1F0000FF0F0000003810CC0000BAA54C
:1015200000F4FF1F0000FE1F0010FE1FF81BFE1F2F
:101530000378C2781946437812061B021943837850
:10154000C0781B04194311430902090A0006084325
:101550007047002203098B422CD3030A8B4211D31C
:1015600000239C464EE003460B433CD40022430834
:101570008B4231D303098B421CD3030A8B4201D324
:1015800094463FE0C3098B4201D3CB01C01A5241BC
:1015900083098B4201D38B01C01A524143098B420C
:1015A00001D34B01C01A524103098B4201D30B01F5
:1015B000C01A5241C3088B4201D3CB00C01A52411A
:1015C00083088B4201D38B00C01A524143088B42DF
:1015D00001D34B00C01A5241411A00D20146524178
:1015E000104670475DE0CA0F00D04942031000D397
:1015F0004042534000229C4603098B422DD3030AEC
:101600008B4212D3FC22890112BA030A8B420CD3FB
:10161000890192118B4208D3890192118B4204D324
:1016200089013AD0921100E08909C3098B4201D3A4
:10163000CB01C01A524183098B4201D38B01C01ADE
:10164000524143098B4201D34B01C01A5241030955
:101650008B4201D30B01C01A5241C3088B4201D304
:10166000CB00C01A524183088B4201D38B00C01AB1
:101670005241D9D243088B4201D34B00C01A524188
:10168000411A00D20146634652415B10104601D315
:101690004042002B00D54942704763465B1000D39F
:1016A000404201B50020C046C04602BD70477047A9
:1016B0007047754600F024F8AE460500694653466B
:1016C000C008C000854618B020B5FFF76DFB60BCB0
:1016D00000274908B6460026C0C5C0C5C0C5C0C55C
:1016E000C0C5C0C5C0C5C0C5403D49008D46704796
:1016F00010B50446C046C0462046FEF7D0FE10BDD9
:10170000004870470000002001491820ABBEFEE7EA
:1017100026000200704730B47446641E2578641CAD
:10172000AB4200D21D46635D5B00E31830BC184736
:101730006017002000180020240000004C04002046
:1017400060170020000000206000000068040020F6
:1017500084170020241800202404000068040020BE
:101760000000000000000000000000000000000079
:101770000000000000000000000000000000000069
:041780000000000065
:0400000520000409CA
:00000001FF
