:020000042000DA
:1004000000500020B111002000F002F800F03AF88E
:100410000AA090E8000C82448344AAF10107DA455F
:1004200001D100F02FF8AFF2090EBAE80F0013F077
:10043000010F18BFFB1A43F00103184724120000F4
:1004400054120000103A24BF78C878C1FAD8520775
:1004500024BF30C830C144BF04680C60704700003E
:100460000023002400250026103A28BF78C1FBD8BD
:10047000520728BF30C148BF0B6070471FB51FBD72
:1004800010B510BD01F0B1F81146FFF7F7FF00F00D
:10049000B3F901F0CFF803B4FFF7F2FF03BC01F0AA
:1004A000D7F8000080F30888704700004FF47A7096
:1004B00000BF011EA0F10100FBD170470CB5024640
:1004C00000200190009006E012F8013B00981844CB
:1004D0000090481E81B20029F6DC0098C0B200905E
:1004E0000098C0B201909DF804000CBD10B5044600
:1004F000F84920680840B0F1005F08D16068F6490B
:1005000008602068FFF7CEFFF3480068804710BD01
:100510000021F24A116026E0F14AF24909680F31E0
:10052000515C0A06EE4BEF4909680E31595C02EB4B
:100530000142EC4909680D31595C02EB0122E9499D
:1005400009680C31595C1144E74AE44B1B6842F8D6
:100550002310E4490968091DE24A1160DF4909686E
:10056000491CDE4A1160DD4909688142D4D300216B
:10057000DC4A1160D94A1160704730B5D84B9B787E
:10058000D74C647843EA0422D84B1B78D84C2468B3
:10059000572505FB0433D9B200200DE000F10C0310
:1005A000CF4CE35C4B4000F10C04CD4D2B5501F1D9
:1005B0005703D9B2431C98B2A2F10D038342EDDC7C
:1005C00030BD0021C54A11601BE0C54AC549096814
:1005D0000C31525CC24BC34909680D31595C02EBC6
:1005E00001218AB2C349BD4B1B6821F81320BD49C4
:1005F0000968891CBB4A1160B8490968491CB74A97
:100600001160B64909688142DFD30021B54A116003
:10061000B24A116070472DE9F04105460E46174673
:10062000002407E036F81410284600F054FFAD1CF3
:10063000601C84B2BC42F5DBBDE8F08170B50546B4
:100640000E46002407E0A84A52F8241005EB840067
:1006500000F00FFF641CB442F5D3012070BD00BF51
:10066000A549097801F001010029F9D0A24908390A
:10067000086070470020A1490968012202EB9162DD
:100680009E490968C1F30251491CB2FBF1F19C4A31
:1006900011709A49096841F00101984A116000BF40
:1006A0009649096801F002010029F9D04FF48061F0
:1006B000924A51601146496821F4803151601146D7
:1006C000096821F0807111601146096821F0F84134
:1006D00011601146096841F0E051116089490968CB
:1006E00001F0F801874A11601146096841F00301E1
:1006F00011608249096841F08071804A116000BF31
:100700007E49096801F000710029F9D07B494968E8
:1007100021F00301794A51601146496841F0020114
:10072000516005E075494968C1F3870000F0030096
:100730000228F7D170477449096821F47F6141F4B8
:100740000861714A116070490831096841F4C0615B
:100750006D4A0832116068491031096821F00101C1
:10076000654A103211606949B1FBF0F10909624A2A
:10077000183211606549B1FBF0F101F00F01121D53
:1007800011605D491031096841F001015A4A103287
:1007900011605D49096821F47F6141F40B615A4A97
:1007A0001160704710B500200021564BDB6903F043
:1007B00002030BB101200FE001210AE0544C04EBCD
:1007C0004103B3F8002863139A4201D0032002E0EA
:1007D000491C0829F2DB00BF002109E04D4C34F828
:1007E00011204FF6FF739A4201D0022002E0491C0B
:1007F0000829F3DB00BF10BD86B00024002005905F
:100800000490002703908046002602900025019066
:100810000090FFF72FFF3948806944F21401084324
:100820003649886118203449103108603020091D8C
:1008300008603348007801280DD12F481C3001682A
:10084000001F006801EB00112D480078324A504328
:10085000B0FBF1F90CE028481C300168001F00686B
:1008600001EB0011264800782C4A5043B0FBF1F907
:100870002648B0FBF9F000091F49183108602348E9
:10088000B0FBF9F000F00F00091D08601A480830AD
:10089000006840F00200184908310860164810301E
:1008A000006840F0010014491031086016480068E3
:1008B0006FF30B00144908600846006840F6BB015E
:1008C00008431149086000F039FD532014490870AD
:1008D000FEE300000000FE2F0000002024000020A6
:1008E0002800002020000020480100201C000020DB
:1008F0000400002048020020083801400010024097
:100900001D000020002002400408014000D8B80566
:1009100000F0FF1F0000FE1F00127A00001BB7004E
:1009200035010020F9480078012806D10020F84957
:100930000860F8490860F5490870F748007800F049
:10094000020008B30220F44908310860019800BB96
:10095000F14808380178F148EE4A12688154ED48B0
:100960000068401CEB4908600020E9490860EB483A
:100970008078EA49497840EA0120E64909688842D6
:1009800007D10120019004E0E1480068401CE049E3
:100990000860DF48006842F22831884214D9DD48F7
:1009A000006888B1DB480088401E81B2DB48FFF751
:1009B00085FDD8490968491ED84A515C884203D050
:1009C0000120D2490870E9E3019801287ED1002472
:1009D00001E0601C84B2B4F57A7FFADBCF48C078BE
:1009E000072874D007DC072872D2DFE800F0132351
:1009F000C0DD71F6F50020286BD006DC092869D02F
:100A00000A2868D00F2863D18DE221287ED05A2889
:100A1000F9D14CE35320FFF722FE0020FFF71FFE21
:100A20000520FFF71CFE0020FFF719FE5820FFF7F6
:100A300016FEA5E3B94800790006B849497940EAAD
:100A40000140B649897940EA0120B449C97908438F
:100A50000590059810B3B148007A0106AF48407A76
:100A600001EB0041AD48807A01EB0020AB49C97A27
:100A70000844AB4908600098012801D1FFF77DFDCB
:100A80004020FFF745FDA6490968491EA54A12689E
:100A900002EB01204021FFF7D1FD46E0FF20A249F3
:100AA000C86000F04BFC00F075FC9C48007A000622
:100AB0009A49497A40EA01409849897A40EA0120F6
:100AC0009649C97A08439749086005E065E33EE125
:100AD00055E373E293E1CEE19048007B00068F4935
:100AE000497B40EA01408D49897B40EA01208B49DE
:100AF000C97B08438D4908608848C07C012812D111
:100B00000090864880788549497800E0A7E240EA6D
:100B1000012B8248C07BABF10101804A515C484007
:100B20008349087001E0002000900020814948704E
:100B3000112088700120C870042405E07748005D0A
:100B40007C490855601C84B2102CF7DB10217948D1
:100B5000FFF7B4FC77490874002405E07549085D87
:100B6000FFF77DFD601C84B2112CF7DB08E35320F6
:100B7000FFF775FD0020FFF772FD0620FFF76FFD00
:100B80000220FFF76CFD6548C079022805D1FFF708
:100B900066FD5D20FFF763FD05E00120FFF75FFDC7
:100BA0005C20FFF75CFDEBE25C48007900065B49E6
:100BB000497940EA01405949897940EA0120574979
:100BC000C97940EA010A00205A4948700920887012
:100BD0000320C870042407E062E025E04F48005D70
:100BE00054490855601C84B2082CF7DB0821514891
:100BF000FFF764FC4F490872002405E04D49085D89
:100C0000FFF72DFD601C84B2092CF7DB00BF4248C2
:100C1000001F007800F001000028F8D0FFF746FC24
:100C20005046FFF788FDABE23C48007A3B49497AE1
:100C300040EA01203949897A40EA01403749C97AB6
:100C400040EA01673548007B3449497B40EA01208E
:100C50003249897B40EA01403049C97B40EA016062
:100C6000039003983860002032494870092088704A
:100C70000520C8700020087148718871C87108216A
:100C80002C48FFF71BFC2B490872002405E029497A
:100C9000085DFFF7E4FC601C84B2092CF7DB6FE20F
:100CA0001E48007A1D49497A40EA01201B49897A89
:100CB00040EA01401949C97A40EA01671E483840B4
:100CC0001D49884205D107F0010020B9B7F800801E
:100CD00001E0D7F80080002016494870092088708C
:100CE0000620C87081F804804FEA182048714FEA46
:100CF000184088714FEA1860C87108210D48FFF745
:100D0000DDFB0C49087200241EE0000010000020EA
:100D10000C000020080000200C38014028000020B2
:100D200004000020140000200020024018000020D1
:100D30001C0000203501002000F8FF1FFE49085D5F
:100D4000FFF78DFC601C84B2092CF7DB18E2FB482E
:100D50008079FA49C97940EA0125F848007AF749CB
:100D6000497A40EA0120F549897A40EA0140F3498D
:100D7000C97A40EA01600290F0480079EF49497968
:100D80000843012802D1029800F0DEFA6808FFF754
:100D900018FCC5F34F02EA490298FFF73CFC05F145
:100DA0000D00000AE449487005F10D008870072025
:100DB000C8700020087148718871C871082405E066
:100DC000DE48005DDC490855601C84B205F10C006A
:100DD0008442F5D381B2D848FFF770FB05F10C01CE
:100DE000D54A5054002405E0D349085DFFF737FC8D
:100DF000601C84B205F10D00A042F5D8C0E10020CE
:100E0000CD49487009208870C87000200871487169
:100E10008871C8710821C848FFF750FBC64908729D
:100E2000002405E0C449085DFFF719FC601C84B28A
:100E3000092CF7DB00BFC348007800F00100002850
:100E4000F9D0002403E0FFF731FB601C84B20A2CC8
:100E5000F9DBBA4909790906B84A527941EA0241EF
:100E6000B64A927941EA0221B44AD27941EA0200B3
:100E7000FFF73CFB84E101200490FFF793FC10B1E5
:100E80000220049031E000242CE0B4B9AB49201DCD
:100E9000085CA52805D1AC496018A52100F03BFBF2
:100EA00012E04FF4FF41A94800F059FB4FF47F4195
:100EB000A648801C00F053FB06E0A04B221D995C65
:100EC000A14AA01800F027FB9C49201D085CA049FE
:100ED000214491F80018884202D00220049003E0D7
:100EE000A01C84B2102CD0DB00BF002092494870B7
:100EF000092088700A20C870002008714871887124
:100F00000498C87108218C48FFF7D8FA8A490872FA
:100F1000002405E08849085DFFF7A1FB601C84B24E
:100F2000092CF7DB2CE10026002406E08948006844
:100F300050F824000644601C84B287480068B4EB73
:100F4000900FF3D38448007800F0030090B10024A0
:100F50000AE08148006880087E49096801EB80004A
:100F6000005D0644601C84B27B48007800F00300FA
:100F7000A042EED80020704948700D2088700F20E4
:100F8000C8700020087148718871C8710E72300AEB
:100F90004872300C8872300EC8720C216648FFF718
:100FA0008DFA65490873002405E06349085DFFF781
:100FB00056FB601C84B20D2CF7DBE1E000205E499B
:100FC0004870092088702020C8705620087133208E
:100FD0004871322088713120C871584880780628BD
:100FE0000BDD56480079032807D10B208870534841
:100FF000007908725148407948724F488078401E05
:1010000081B24D48FFF75AFA4B498978491E4A4A3E
:101010005054002405E04849085DFFF720FB601CA0
:1010200084B245488078A042F5DC00BF454800788E
:1010300000F001000028F9D04048807806280DDD36
:101040003E480079032809D1FFF730FA3A49497A36
:101050004FF4166201FB02F0FFF76DFB90E00020F9
:10106000354948700D2088702120C8704C200871C7
:1010700033204871372088715820C8714320087286
:1010800033204872312088723020C8720C212A48DF
:10109000FFF714FA28490873002405E02649085D83
:1010A000FFF7DDFA601C84B20D2CF7DB68E000204E
:1010B00021494870092088705A20C87000200871A2
:1010C00048718871C87108211B48FFF7F7F900E0E3
:1010D00064E019490872002405E01749085DFFF72C
:1010E000BEFA601C84B2092CF7DBFFF7DFF9FFF7CB
:1010F000DDF9FFF7DBF9FFF7D9F900F071F900F03E
:1011000049F900F0A9F8FFF7D1F9FFF7CFF9FFF798
:10111000CDF9FFF7CBF9FFF7C9F9FFF7C7F9FFF7EB
:10112000C5F9FFF7C3F9FFF7C1F9FFF7BFF9FFF7FB
:10113000BDF9FFF7BBF911E03501002028000020C0
:10114000480200200838014000F8FF1F0000FE1F81
:1011500000F0FF1F140000201800002000BFBFF3A4
:101160004F8F0F48006800F4E0600E490843001DEF
:101170000B490860BFF34F8F00BF00BFFEE700BF01
:1011800000BF00BF0848007800F001000028F9D037
:101190000120064908700020019000BFFFF7C2BB84
:1011A0000CED00E00000FA050838014010000020B6
:1011B00008480047FEE7FEE7FEE7FEE7FEE7FEE73A
:1011C000FEE7FEE7FEE7FEE703480449024A044B58
:1011D0007047000009040020A803002000500020F0
:1011E000004F00200420F749C96801F0010109B14E
:1011F00001200EE0F349C96801F0040109B10220A1
:1012000007E0F049C96801F0100109B1032000E0CE
:101210000420704708B500200090FF20009002E0F5
:101220000098401E009000980028F9D108BD70B5C4
:1012300004460425FFF7D6FF054605E0FFF7EAFF61
:10124000FFF7D0FF0546641E012D01D1002CF5D11A
:1012500004B90525284670BD10B50424DA48D949DB
:1012600048614014FFF7E3FF0446042C2BD1D74814
:10127000D4498860D64888600846006940F020005C
:1012800008610846006940F04000086140F6FF70C0
:10129000FFF7CDFF0446042C0CD1CA48006941F683
:1012A000DF710840C74908610846006940F0100036
:1012B000086108E0012C06D0C248006941F6EF71D0
:1012C0000840C0490861204610BD10B50424C1483B
:1012D000BC4948614014FFF7AAFF0446042C2BD1F7
:1012E000BA48B8498860BA4888600846006940F042
:1012F000200008610846006940F04000086140F69F
:10130000FF70FFF794FF0446042C0CD1AD48006930
:1013100041F6DF710840AB4908610846006940F0BA
:101320001000086108E0012C06D0A648006941F6CB
:10133000EF710840A3490861204610BDA348A149A8
:101340004860A3484860704770B50546042440F6DD
:10135000FF70FFF76CFF0446042C19D1994800690F
:1013600040F002009749086108464561006940F075
:101370004000086140F6FF70FFF759FF0446012C5A
:1013800006D09048006941F6FD7108408D4908611A
:10139000204670BD10B5042440F6FF70FFF747FFEC
:1013A0000446042C1AD14006864948610846006963
:1013B00040F0040008610846006940F04000086100
:1013C00040F6FF70FFF733FF0446012C06D07D483E
:1013D000006941F6FB7108407A490861204610BD5A
:1013E00010B5042440F6FF70FFF721FF0446042CDB
:1013F0003DD1764873498860754888600846006921
:1014000040F020000861734848610846006940F0D8
:101410004000086140F6FF70FFF709FF0446042C06
:101420001CD16848006941F6DF71084065490861D0
:101430000846006940F010000861A5206549088051
:101440000F20FFF7F4FE0446012C10D05D48006920
:1014500041F6EF7108405B49086108E0012C06D0B5
:101460005848006941F6EF71084056490861204626
:1014700010BD70B505460E4604240F20FFF7D7FEB9
:101480000446042C25D14F48006940F001004D4925
:1014900008612E800F20FFF7CAFE0446042C0FD1EE
:1014A000300C68800F20FFF7C2FE0446012C10D0DC
:1014B0004448006941F6FE7108404249086108E06D
:1014C000012C06D03F48006941F6FE7108403D49B5
:1014D0000861204670BD70B505460E4604240F20F5
:1014E000FFF7A5FE0446042C13D13648006940F0EE
:1014F0000100344908612E800F20FFF798FE044652
:10150000012C06D02F48006941F6FE7108402D4994
:101510000861204670BD70B505460E4604240F20B4
:10152000FFF785FE0446042C17D12848254988601A
:10153000274888600846006940F0100008612E8046
:101540000F20FFF774FE0446012C06D01D480069E9
:1015500041F6EF7108401B490861204670BD70B527
:1015600005460E46042440F6FF70FFF760FE044671
:10157000042C24D115481349486015484860134885
:101580008860134888600846006941F6EF7108409A
:101590000C4908610846006940F0100008612E807F
:1015A0000F20FFF744FE0446042C08D0012C06D07F
:1015B0000448006941F6EF7108400249086120467D
:1015C00070BD0000002002400000FE1F230167459F
:1015D000AB89EFCD00F8FF1F0149C86070470000DC
:1015E00000200240704770477047754600F02CF8A5
:1015F000AE4605006946534620F00700854618B000
:1016000020B5FFF7E1FDBDE820404FF000064FF0A8
:1016100000074FF000084FF0000B21F00701AC4627
:10162000ACE8C009ACE8C009ACE8C009ACE8C00946
:101630008D46704710B50446AFF300802046BDE8E4
:101640001040FEF728BF0000004870474803002004
:1016500001491820ABBEFEE72600020070470000DB
:101660009016002000000020280000004404002004
:10167000B81600202800002080030000600400202D
:10168000B8160020004F0020000100006004002078
:10169000000000000000000000000000000000004A
:1016A000000000000000000000000000000000003A
:0816B000000000000000000032
:0400000520000409CA
:00000001FF
