:020000042000DA
:10240000A80400209125002000000000000000002A
:1024100000000000000000000000000000000000BC
:1024200000000000000000000000000000000000AC
:10243000000000000000000000000000000000009C
:10244000000000000000000000000000000000008C
:10245000000000000000000000000000000000007C
:10246000000000000000000000000000000000006C
:10247000000000000000000000000000000000005C
:10248000000000000000000000000000000000004C
:10249000000000000000000000000000000000003C
:1024A000000000000000000000000000000000002C
:1024B000000000000000000000000000000000001C
:1024C000000000000000000000000000000000000C
:1024D00000000000000000000000000000000000FC
:1024E00000000000000000000000000000F002F802
:1024F00000F03AF80AA090E8000C82448344AAF164
:102500000107DA4501D100F02FF8AFF2090EBAE861
:102510000F0013F0010F18BFFB1A43F00103184717
:102520002001000040010000103A24BF78C878C1A3
:10253000FAD8520724BF30C830C144BF04680C60C9
:10254000704700000023002400250026103A28BF11
:1025500078C1FBD8520728BF30C148BF0B60704715
:102560001FB51FBD10B510BD00F02FF81146FFF7C5
:10257000F7FF00F085F800F04DF803B4FFF7F2FF25
:1025800003BC00F055F8000080F308887047000095
:1025900008480047FEE7FEE7FEE7FEE7FEE7FEE746
:1025A000FEE7FEE7FEE7FEE703480449024A044B64
:1025B00070470000ED240020A8030020A80400209C
:1025C000A8030020704770477047754600F02CF84C
:1025D000AE4605006946534620F00700854618B010
:1025E00020B5FFF7E1FFBDE820404FF000064FF0B7
:1025F00000074FF000084FF0000B21F00701AC4638
:10260000ACE8C009ACE8C009ACE8C009ACE8C00956
:102610008D46704710B50446AFF300802046BDE8F4
:102620001040FFF7AABF0000004870474803002091
:1026300001491820ABBEFEE72600020070470000EB
:102640003C36002000000020280000002825002043
:10265000643600202800002080040000442500206B
:10266000000000000000000000000000000000006A
:10267000000000000000000000000000000000005A
:1026800086B0002400200590049000270390814626
:102690000026029000250190009000F03FFDFE48CA
:1026A000806944F214010843FB4988611820FB4902
:1026B00008603020091D0860F948007801280AD117
:1026C000F7480078F7494843F44908310968090197
:1026D000B0FBF1F809E0F2480078F3494843EF49CC
:1026E000083109680901B0FBF1F84FEA0810EF4919
:1026F000B1FBF0F00A21B0FBF1F201FB120005285A
:1027000009D94FEA0810EA49B1FBF0F0401CE3494F
:102710000831086007E04FEA0810E549B1FBF0F026
:10272000DE4908310860DD480838006840F00200E2
:10273000DA4908390860D948006840F00100D749F3
:102740000860DC4800686FF30B00DA49086008464F
:10275000006840F6BB010843D649086000F050FE0F
:102760005320D5490870EDE3D4480078012806D1FC
:102770000020D3490860D3490860D0490870C74891
:102780000C38007800F0020008B30220C349091F8A
:102790000860019800BBC14814380078CA49C94A8A
:1027A00012688854C7480068401CC6490860002069
:1027B000C3490860C4488078C349497840EA012089
:1027C000C0490968884207D10120019004E0BC4853
:1027D0000068401CBA490860B948006841F2883175
:1027E000884214D9B748006888B1B6480088401EAE
:1027F00081B2B54800F0B6FBB2490968491EB24A39
:10280000515C884203D00120AC4908709AE30198DA
:1028100001287DD1AC48C07807287AD006DC79D26F
:10282000DFE800F01323BFDC78F5F400202872D035
:1028300006DC092870D00A286FD00F286AD17CE204
:1028400021286BD05A28F9D14CE3532000F05BFCCF
:10285000002000F058FC052000F055FC002000F09E
:1028600052FC582000F04FFC5EE3974800790006C8
:102870009549497940EA01409349897940EA012024
:102880009149C97908430590059810B38E48007A9C
:1028900001068D48407A01EB00418B48807A01EBBC
:1028A00000208949C97A08448849086000980128AD
:1028B00001D100F0B6FB402000F07EFB834909689F
:1028C000491E834A126802EB0120402100F00AFCF5
:1028D00045E0FF207F49C86000F092FD00F0BCFD9C
:1028E0007948007A00067849497A40EA01407649F9
:1028F000897A40EA01207449C97A0843744908601A
:102900007148007B00067049497B40EA014006E0BF
:1029100017E342E107E35BE297E1D2E1A9E26A490A
:10292000897B40EA01206849C97B08436A490860FD
:102930006548C07C012810D10090634880786249C6
:10294000497840EA012B6048C07BABF101015E4A47
:10295000515C48406149087001E00020009000206F
:1029600055494870112088700120C870042405E082
:102970005548005D50490855601C84B2102CF7DBA7
:1029800010214D4800F0EEFA4B490874002405E090
:102990004949085D00F0B7FB601C84B2112CF7DBDD
:1029A000C2E2532000F0AFFB002000F0ACFB062099
:1029B00000F0A9FB022000F0A6FB4348C0790228E2
:1029C00005D100F0A0FB5D2000F09DFB05E001209B
:1029D00000F099FB5C2000F096FBA5E23A480079F4
:1029E00000063949497940EA01403749897940EA86
:1029F00001203549C97940EA010A00202E49487072
:102A0000092088700320C870042407E087E025E0CF
:102A10002D48005D28490855601C84B2082CF7DB5E
:102A20000821254800F09EFA23490872002405E099
:102A30002149085D00F067FB601C84B2092CF7DBBC
:102A400000BF16481038007800F001000028F8D0C8
:102A500000F080FA504600F0C2FB65E21A48007AA6
:102A60001949497A40EA01201749897A40EA014028
:102A70001549C97A40EA01671348007B1249497B2E
:102A800040EA01201049897B40EA01400E49C97B98
:102A900040EA0160039023E0001002401838014032
:102AA0001D00002000127A00001BB70000703839AA
:102AB00000D8B805040801403501002010000020AE
:102AC0000C00002008000020280000200400002046
:102AD0001400002000200240180000201C000020EC
:102AE000039838600020F749487009208870052055
:102AF000C8700020087148718871C8710821F148B8
:102B000000F030FAEF490872002405E0ED49085D55
:102B100000F0F9FA601C84B2092CF7DB04E2EA4801
:102B2000007AE949497A40EA0120E749897A40EA8E
:102B30000140E549C97A40EA0167E4483840E34981
:102B4000884205D107F0010020B9B7F8009001E0F4
:102B5000D7F800900020DB494870092088700620D3
:102B6000C87081F804904FEA192048714FEA194063
:102B700088714FEA1960C8710821D24800F0F2F953
:102B8000D0490872002405E0CE49085D00F0BBFA88
:102B9000601C84B2092CF7DBC6E1CB488079CA49B6
:102BA000C97940EA0125C848007AC749497A40EA0C
:102BB0000120C549897A40EA0140C349C97A40EAFF
:102BC00001600290C0480079BF4949790843012853
:102BD00002D1029800F01AFC680800F046FAC5F32A
:102BE0004F02BB49029800F06AFA05F10D00000A95
:102BF000B449487005F10D0088700720C8700020A6
:102C0000087148718871C871082405E0AE48005DFC
:102C1000AC490855601C84B205F10C008442F5D320
:102C200081B2A84800F09EF905F10C01A54A505464
:102C3000002405E0A349085D00F065FA601C84B239
:102C400005F10D00A042F5D86EE100209D494870C5
:102C500009208870C8700020087148718871C87197
:102C60000821984800F07EF996490872002405E092
:102C70009449085D00F047FA601C84B2092CF7DB28
:102C800000BF9448007800F001000028F9D000242B
:102C900003E000F05FF9601C84B20A2CF9DB8A497A
:102CA00009790906884A527941EA0241864A9279AD
:102CB00041EA0221844AD27941EA020000F06AF92D
:102CC00032E100F064FB01200490002414E07E4B0C
:102CD000221D995C7D4AA01800F07FFC7A49201DD6
:102CE000085C7D49214491F80018884202D00220F6
:102CF000049003E0A01C84B2102CE8DB00BF00208D
:102D000070494870092088700A20C8700020087136
:102D1000487188710498C87108216A4800F022F946
:102D200068490872002405E06649085D00F0EBF987
:102D3000601C84B2092CF7DBF6E00026002406E0D4
:102D40006648006850F824000644601C84B2644859
:102D50000068B4EB900FF3D36148007800F00300F3
:102D600090B100240AE05E48006880085B49096869
:102D700001EB8000005D0644601C84B25848007876
:102D800000F00300A042EED800204E4948700D200C
:102D900088700F20C8700020087148718871C87150
:102DA0000E72300A4872300C8872300EC8720C21D4
:102DB000444800F0D7F843490873002405E041492E
:102DC000085D00F0A0F9601C84B20D2CF7DBABE0CD
:102DD00000203C494870092088702020C870562087
:102DE0000871312048712E2088713120C871364811
:102DF000807806280BDD34480079032807D10B20A2
:102E000088703148007908722F48407948722D48FF
:102E10008078401E81B22B4800F0A4F829498978B7
:102E2000491E284A5054002405E02649085D00F058
:102E30006AF9601C84B223488078A042F5DC00BFA8
:102E40002448007800F001000028F9D01E4880785E
:102E500006280DDD1C480079032809D100F07AF816
:102E60001849497A4FF4166201FB02F000F0B7F9F5
:102E70005AE00020134948700D2088702120C87046
:102E80004C20087133204871372088715820C87150
:102E90004320087233204872312088723020C87273
:102EA0000C21084800F05EF806490873002405E08C
:102EB0000449085D00F027F9601C84B20D2CF7DB93
:102EC00032E00000350100202800002000F8FF1F3C
:102ED000480200200838014000F0FF1F14000020C5
:102EE0001800002000F0DEFA00F0B6FA00201649C3
:102EF0004870092088705A20C870002008714871F5
:102F00008871C8710821104800F02CF80E49087229
:102F1000002405E00C49085D00F0F5F8601C84B25F
:102F2000092CF7DB00E000BF00BF00BF07480078B6
:102F300000F001000028F9D00120054908700020A8
:102F4000019000BF10E40000350100200838014066
:102F5000100000204FF47A7000BF011EA0F10100A4
:102F6000FBD170470CB5024600200190009006E0AE
:102F700012F8013B009818440090481E81B20029C5
:102F8000F6DC0098C0B200900098C0B201909DF8A5
:102F900004000CBD10B50446B34920680840B0F1E8
:102FA000005F08D16068B14908602068FFF7ECFA5B
:102FB000AE480068804710BD0021AD4A116026E090
:102FC000AC4AAD4909680F31515C0A06A94BAA49C0
:102FD00009680E31595C02EB0142A74909680D31BD
:102FE000595C02EB0122A44909680C31595C114477
:102FF000A24A9F4B1B6842F823109F490968091D8C
:103000009D4A11609A490968491C994A116098497A
:1030100009688142D4D30021974A1160944A116013
:10302000704730B5934B9B78924C647843EA042206
:10303000934B1B78934C2468572505FB0433D9B276
:1030400000200DE000F10C038A4CE35C4B4000F1E2
:103050000C04884D2B5501F15703D9B2431C98B28B
:10306000A2F10D038342EDDC30BD0021804A1160E6
:103070001BE0804A804909680C31525C7D4B7E49D7
:1030800009680D31595C02EB01218AB27E49784B07
:103090001B6821F8132078490968891C764A116059
:1030A00073490968491C724A116071490968814273
:1030B000DFD30021704A11606D4A116070472DE91D
:1030C000F04105460E461746002407E036F8141076
:1030D000284600F062FAAD1C601C84B2BC42F5DBED
:1030E000BDE8F08170B505460E46002407E0634A4E
:1030F00052F8241005EB840000F01DFA641CB44261
:10310000F5D3012070BD00BF6049097801F00101CD
:103110000029F9D05D4908390860704700205C49F2
:103120000968012202EB916259490968C1F3025111
:10313000491CB2FBF1F1574A11705549096841F039
:103140000101534A116000BF5149096801F00201B1
:103150000029F9D04FF480614D4A51601146496809
:1031600021F4803151601146096821F080711160AD
:103170001146096821F0F84111601146096841F0D3
:10318000E05111604449096801F0F801424A1160B8
:103190001146096841F0030111603D49096841F099
:1031A00080713B4A116000BF3949096801F0007124
:1031B0000029F9D03649496821F00301344A5160A9
:1031C0001146496841F00201516005E03049496803
:1031D000C1F3870000F003000228F7D170472F49A0
:1031E000096821F47F6141F408612C4A11602B4980
:1031F0000831096841F4C061284A08321160234946
:103200001031096821F00101204A103211600101DA
:10321000234AB2FBF1F10A22B1FBF2F302FB1311D4
:10322000052908D901011F4AB2FBF1F1491C174ACF
:103230001832116006E001011A4AB2FBF1F1134A9B
:103240001832116011491031096841F001010F4A2B
:10325000103211601149096821F47F6141F40B615A
:103260000E4A1160704700000000FE2F0000002091
:103270002400002028000020200000204801002019
:103280001C000020040000204802002008380140F3
:10329000001002401D0000200020024004080140F0
:1032A0000070383900D8B8050420DF49C96801F03A
:1032B000010109B101200EE0DB49C96801F00401F8
:1032C00009B1022007E0D849C96801F0100109B12D
:1032D000032000E00420704708B500200090FF2084
:1032E000009002E00098401E009000980028F9D15C
:1032F00008BD70B504460425FFF7D6FF054605E076
:10330000FFF7EAFFFFF7D0FF0546641E012D01D14C
:10331000002CF5D104B90525284670BD10B504244C
:10332000C248C14948614014FFF7E3FF0446042C3A
:103330002BD1BF48BC498860BE48886008460069F8
:1033400040F0200008610846006940F04000086134
:1033500040F6FF70FFF7CDFF0446042C0CD1B248B5
:10336000006941F6DF710840AF490861084600690D
:1033700040F01000086108E0012C06D0AA4800695E
:1033800041F6EF710840A8490861204610BD10B50C
:103390000424A948A44948614014FFF7AAFF044641
:1033A000042C2BD1A248A0498860A2488860084616
:1033B000006940F0200008610846006940F04000C4
:1033C000086140F6FF70FFF794FF0446042C0CD10F
:1033D0009548006941F6DF71084093490861084645
:1033E000006940F01000086108E0012C06D08E480A
:1033F000006941F6EF7108408B490861204610BD15
:103400008B48894948608B484860704770B50546CD
:10341000042440F6FF70FFF76CFF0446042C19D11A
:103420008148006940F002007F4908610846456113
:10343000006940F04000086140F6FF70FFF759FF57
:103440000446012C06D07848006941F6FD71084019
:1034500075490861204670BD10B5042440F6FF7020
:10346000FFF747FF0446042C1AD140066E49486115
:103470000846006940F0040008610846006940F011
:103480004000086140F6FF70FFF733FF0446012C4F
:1034900006D06548006941F6FB7108406249086141
:1034A000204610BD10B5042440F6FF70FFF721FF41
:1034B0000446042C3DD15E485B4988605D488860C5
:1034C0000846006940F0200008615B4848610846F2
:1034D000006940F04000086140F6FF70FFF709FF07
:1034E0000446042C1CD15048006941F6DF710840A5
:1034F0004D4908610846006940F010000861A520A8
:103500004D4908800F20FFF7F4FE0446012C10D02F
:103510004548006941F6EF7108404349086108E0F9
:10352000012C06D04048006941F6EF7108403E4941
:103530000861204610BD70B505460E4604240F20D4
:10354000FFF7D7FE0446042C25D13748006940F028
:103550000100354908612E800F20FFF7CAFE04469E
:10356000042C0FD1300C68800F20FFF7C2FE0446F8
:10357000012C10D02C48006941F6FE7108402A4900
:10358000086108E0012C06D02748006941F6FE7169
:10359000084025490861204670BD70B505460E46B5
:1035A00004240F20FFF7A5FE0446042C13D11E4867
:1035B000006940F001001C4908612E800F20FFF7D0
:1035C00098FE0446012C06D01748006941F6FE71AA
:1035D000084015490861204670BD70B505460E4685
:1035E00004240F20FFF785FE0446042C17D1104851
:1035F0000D4988600F4888600846006940F0100057
:1036000008612E800F20FFF774FE0446012C06D0BF
:103610000548006941F6EF710840034908612046FA
:1036200070BD0149C8607047002002400000FE1FC5
:1036300023016745AB89EFCD00F8FF1F00000000B4
:10364000000000000000000000000000000000007A
:10365000000000000000000000000000000000006A
:043660000000000066
:04000005200024EDC6
:00000001FF
